:020000040800F2
:10000000880F00209D0100087D3100089D2C00080C
:100010007931000821210008394300080000000060
:10002000000000000000000000000000DD3B0008B0
:10003000F3270008000000004D370008913C00083D
:100040002521000827210008374300080000000090
:1000500000000000F1270008953F00089D3F0008C0
:10006000D93B000800000000A12C0008D93300088B
:100070003D430008000000007D3F0008853F000868
:100080008D3F00081D2100080000000063270008C4
:10009000DB3B000800000000000000000000000042
:1000A0000000000000000000000000001F21000808
:1000B0001D2800081F280008212800082328000800
:1000C00000F002F800F05BF80AA090E8000C82440F
:1000D0008344AAF10107DA4501D100F050F8AFF2EC
:1000E000090EBAE80F0013F0010F18BFFB1A43F016
:1000F00001031847A4510000C4510000103A24BF66
:1001000078C878C1FAD8520724BF30C830C144BF7C
:1001100004680C60704700000023002400250026BE
:10012000103A28BF78C1FBD8520728BF30C148BF5A
:100130000B607047662904F07087642900F0BC806A
:10014000752900F0B980782900F0F280732900F059
:100150005A86002070471FB59DE8030001F0FCF9A6
:1001600000F08AFE04000020002104F0ADFDE060F4
:1001700000F082FF1FBD10B500F0E7FF10BD01F0D9
:1001800056F81146FFF7E7FF04F0E2F901F05AF9DB
:1001900003B4FFF7F0FF03BC00F068FE0948804796
:1001A00009480047FEE7FEE7FEE7FEE7FEE7FEE759
:1001B000FEE7FEE7FEE7FEE704480549054A064B71
:1001C00070470000693D0008C10000088809002050
:1001D000880F0020880B0020880B002010B54C10E1
:1001E00084EA530404D54042C1F1000138BF491EDE
:1001F0001B4204D55242C3F1000338BF5B1E00F01E
:10020000F4FA14F0804F04D04042C1F1000138BF2D
:10021000491E14F0004F04D05242C3F1000338BF0E
:100220005B1E10BD0FB4044910B503AA029800F07C
:10023000EFFD10BC5DF814FB800800200FB41CB566
:10024000074B06AA7B4469460090059800F0B1FD73
:100250000020694600F0C0FD1CBC5DF814FB0000E6
:10026000910B000070B50C460546012A05D0287890
:10027000800600D5EA69002302E0012305E05B1C4B
:10028000934202D2E05C0028F9D1A869E618C01AAE
:10029000A861286A184428622846AFF3008004E069
:1002A000D5E9012114F8010B9047B442F8D3284650
:1002B000AFF3008070BD00002DE9F0410646002438
:1002C00010687529314616A510D0AFF300800028BC
:1002D00002DA404213A507E031688A0701D512A56A
:1002E00002E0490704D511A5012401E0AFF3008025
:1002F00000210A2206F1240709E0B0FBF2FCB0FB62
:10030000F2F302FB1C00303078541846491C0028D8
:10031000F3D123462A463046BDE8F04100F0DCBA6E
:10032000000000002D0000002B0000002000000055
:1003300070B504460D4621461068AFF30080218851
:10034000090502D50F4A7A4402E00E4A7A440E3279
:10035000002104F1240305E000F00F060009965D7A
:100360005E54491C0028F7D120780023000704D5EB
:10037000702D02D009B1022311322046BDE8704031
:1003800000F0AABA664E00002DE9F05F89460446E7
:100390004FF0000ADFF824B1FB44C0F820A020464B
:1003A000E168884700287DD0252806D0D4E90121BE
:1003B0009047206A401C2062F1E700255F462046F6
:1003C000E16888472028064607DB312E05D2B81998
:1003D00010F8200C08B10543F1E7A80701D525F076
:1003E0000405C4F81CA00027C4F818A02A2E09D0C0
:1003F000304603F0B8FF38B304EB8708303EC8F846
:10040000186019E059F8041B204604EB870291613B
:10041000E1688847012F064618D1E069002820DAF4
:1004200025F020051DE0D8F8180000EB800006EB51
:1004300040003038C8F818002046E1688847064672
:1004400003F091FF0028EED1012F0AD02E2E08D103
:100450002046E16888477F1C0646022F45F02005AC
:10046000C4DBA069002803DA404245F00105A06121
:10047000E80701D025F01005A6B1A6F14100192822
:1004800002D8203645F400654A46314620462560AC
:100490004D46FFF74FFE60B1012807D0ED1D25F056
:1004A000070000E007E000F1080978E705F104091A
:1004B00075E730467AE7206ABDE8F09F3C4E0000C1
:1004C0000EB5054614460E4613A000F0BEFC2846A5
:1004D00000F0BBFC16A000F0B8FC304600F0B5FC04
:1004E00015A000F0B2FC00218DF80B100A210DF1CF
:1004F0000A008DF80A1008E094FBF1F201FB1242A9
:1005000094FBF1F4303200F8012D002CF4DC00F003
:100510009CFC00F08FFC00002A2A2A20617373657E
:100520007274696F6E206661696C65643A200000C0
:100530002C2066696C6520002C206C696E6520009B
:1005400010B5203AC0F00B80B1E81850203AA0E86E
:100550001850B1E81850A0E81850BFF4F5AF5FEAA2
:10056000027C24BFB1E81850A0E8185044BF18C955
:1005700018C0BDE810405FEA827C24BF51F8043BFC
:1005800040F8043B08BF7047D20728BF31F8023B50
:1005900048BF11F8012B28BF20F8023B48BF00F8E4
:1005A000012B70474FF000020429C0F0128010F0B8
:1005B000030C00F01B80CCF1040CBCF1020F18BF3F
:1005C00000F8012BA8BF20F8022BA1EB0C0100F0D2
:1005D0000DB85FEAC17C24BF00F8012B00F8012BA5
:1005E00048BF00F8012B70474FF0000200B51346DA
:1005F00094469646203922BFA0E80C50A0E80C5043
:10060000B1F12001BFF4F7AF090728BFA0E80C50F3
:1006100048BF0CC05DF804EB890028BF40F8042BEC
:1006200008BF704748BF20F8022B11F0804F18BF59
:1006300000F8012B7047000010B503681C1404EB90
:1006400021449BB289B2194494FBF2F302FB134399
:1006500094FBF2F401EB034393FBF2F102FB113143
:1006600093FBF2F301E05B1E11440029FBDB016008
:1006700003EB044010BDF0B504464FF0FF3585B0E4
:100680000068049060680290A0680390E0680190A0
:1006900020690090666906F18040B0F1004F7CD877
:1006A0003C22002104A8FFF7C7FF3C22014602A814
:1006B000FFF7C2FF1822014603A8FFF7BDFF411E46
:1006C00040F2B55201A8FFF7B7FF0C220746684673
:1006D0000021FFF7B1FF414B00EB870030440026BB
:1006E0007B4411E0511A01910099491C02290091A3
:1006F00002D00C2908D105E0810705D00199491CD9
:10070000019101E0401C00960099019A595C9142C8
:10071000E8DD0099012906D11C2A04D1810702D005
:100720000221CDE90016A0F146018B293CD2DDE97A
:100730000061002202E09F5C521C3944B242FADBA5
:10074000012E02DD820700D0491E40F2B55340F26F
:100750006D16C21700EB927292105A4300F0030319
:1007600003FB062283070A4400D1521E039E02EBBC
:100770004203049F06EBC303029EC3EB031306EB85
:100780008303174E33441E149BB2C6EB0616C3EB0D
:100790000313B60007EB830300E005E006EB134606
:1007A00066F31F43360C02D0284605B0F0BD80C466
:1007B000029E40C4039E40C4019E761C44F80C6B0C
:1007C000009E44E902600720521C92FBF0F600FBF9
:1007D000162084E823001846E7E70000054B0000D8
:1007E000A039CEFD70477047704753EA020C00F005
:1007F00069802DE9F04B4FF00006002B1FBFB3FAC4
:1008000083F503FA05F424FA05F65E4012BF164399
:10081000B2FA82F502FA05F4C5F120051EBF22FAEC
:1008200005FC44EA0C04203556EA044C4FEA144413
:1008300018BF641C4FF000084FF00009904271EBA4
:10084000030C39D3002919BFB1FA81F701FA07F671
:10085000B0FA80F700FA07F6C7F120071EBF20FAAA
:1008600007FC46EA0C062037B6FBF4FCA7EB0507AD
:10087000103F07F01F0BCBF120060CFA0BFB2CFAF4
:1008800006F644BFB3460026202FA4BF5E464FF0B5
:10089000000B5BEA060C08BF4FF0010B19EB0B09CC
:1008A000ABFB027C48EB0608C01B06FB02CC0BFB33
:1008B00003CC71EB0C01C1E70B46024641464846AA
:1008C000BDE8F08B13B54FF000004FF00001AFF31F
:1008D0000080BDE81C4070472DE9F0470D46994661
:1008E0009246044600F124080168880604D5E069B0
:1008F00021F01001216000E00120A84201DD471B2A
:1009000000E00027A1697A1902EB0900081AA0612A
:100910002078C00602D42046AFF30080002608E00D
:10092000D4E901211AF806009047206A401C761C81
:1009300020624E45F4DB2078C0060AD52046AFF38E
:10094000008006E0D4E9012130209047206A401C55
:100950002062381EA7F10107F4DC07E0D4E9012189
:1009600018F805009047206A401C2062281EA5F157
:100970000105F3DC2046AFF300802078000602D5A5
:100980000220BDE8F0870120FBE770472DE9FF4F0B
:100990000C461E464FF0FF378BB0D2E90001DDF860
:1009A00060800A908A46C1F30A5505B93D46002188
:1009B00008464FF00000BAF1000F00F4400005DADD
:1009C00000EB80004FF4400101EA50004FEA9059DB
:1009D000B9F1010F00DDB9460A9850EA4A000ED07D
:1009E00044F61050A5F2FF3545432F14B8F1000F1F
:1009F0001ED07542291E1EDDC9F100021CE0B8F1AF
:100A0000010F4FF0000001D0302103E0F24305E078
:100A10002154401CB042FBDB30460022002121540F
:100A20000B99C1F80880C1E900200FB0BDE8F08F34
:100A3000BD1B6D1CDEE74A4600DA694206A800F0DD
:100A4000A5FA06AB93E8070003AB83E8070050461E
:100A50000A9900F09BFF8DE80700A0F500501F38B1
:100A600000900398002D0ADD42F21F014A46084417
:100A7000002303A90390684601F004FA09E0A0F5F9
:100A800000504A461F38002303A90390684601F02E
:100A90000EFA8DE807000004000C03D04FF0FF3081
:100AA000410800E01046B8F1000F03D00022009288
:100AB00015461EE0751E05D400F0E2F9303262558D
:100AC0006D1EF9D5B3460122084302D000227F1CD7
:100AD00004E02078302801D100227F1E002A0997E7
:100AE00084D01DE0112D07DA00F0CAF930326255CA
:100AF0006D1C50EA0102F5D1084302D00098C8B13C
:100B00000EE00021681E05E0235C625C6354225401
:100B1000401E491C8142F7DBAB46A81B401E0990D2
:100B2000002004F80B000B98099AC0F80880C0E96F
:100B3000002B7AE711264FF0000857E72DE9F04F18
:100B400088460446D21D22F0070191B0D1E9000188
:100B5000CDE90A0103F0F3FB02460B98C00F01D068
:100B60002D2007E02068810701D52B2002E02021FD
:100B700001EAC000032A099001D0072A05DB0346D9
:100B80004146204600F0C2F90BE12078800601D5ED
:100B9000E06900E00620B8F1650F814606D0B8F1A3
:100BA000660F18D0B8F1670F70D131E00020B9F1AD
:100BB000110F009001DB112301E009F101030AAAE2
:100BC00001A90CA8FFF7E2FEDDE90C70002609F18F
:100BD0000105834647E001204B4600904FF0004757
:100BE0000AAA01A90CA8FFF7D1FEDDE90DB00C9906
:100BF0005D46002610B909F101000D18B9EB05009A
:100C000003D4C0F1FF3609F10105A5EB09002BE083
:100C1000B9F1010F01DA4FF001090020B9F1110F0C
:100C20000090484601DD112300E003460AAA01A90D
:100C30000CA8FFF7ABFEDDE90C704D46002683469D
:100C4000207800070AD4AB4500DA5D4601A8012DE3
:100C500004DD411911F8011C302907D04F4502DA93
:100C600017F1040F04DA012082460FE06D1EEEE753
:100C7000002F02DCED1B3E4403E0781CA84200DD9F
:100C80007D1CB81B00F1010A4FF0004720780007D7
:100C900003D4AA4501DB4FF0FF3A0021B7F1004F22
:100CA0000DF143088DF8431024D002202B23002F90
:100CB00001DA7F422D230A21021EA0F1010000DC8F
:100CC0005FB197FBF1FC97FBF1F201FB1C7C17462F
:100CD0000CF1300C08F801CDEEE7A8F1010003702B
:100CE0002188090501D5452100E06521A0F1010811
:100CF00000F8011C09980FA9A1EB0807FF1D00B11E
:100D00000120411901EBEA70A1693844081A401E1C
:100D1000A0612078C00602D42046AFF30080099875
:100D200028B1D4E901219047206A401C2062207834
:100D3000C00622D52046AFF300801EE0002E04DB63
:100D4000B34502DD01A8805D00E03020D4E9012137
:100D50009047206A401C2062761CAAF101005FEADD
:100D6000000A0AD100F088F8C0680168405CD4E944
:100D700001219047206A401C2062281EA5F1010530
:100D8000DCDC07E0D4E9012118F8010B9047206A68
:100D9000401C2062381EA7F10107F3DC2046AFF3A8
:100DA0000080032011B041E601694A1C0261087805
:100DB000704700B58FB0CDE901310021059105499B
:100DC0007944CDE9031011466846FFF7DDFA0FB00C
:100DD00000BD0000E5FFFFFF0A6802F8010B0A6092
:100DE000704710B5436913B1AFF3008001E0FFF71E
:100DF00039FA012010BD127800F124010A70002296
:100E00004A700122EDE711684FF0FF32E9E7000078
:100E1000074B70B50D467B44FFF7CBFF04462846D1
:100E200000F026F910B14FF0FF3070BD204670BDC4
:100E3000C336000010B5002000F0BAF9FFF79BF9A7
:100E4000BDE81040012000F011B810B5044602E0E2
:100E5000641C00F004F820780028F9D110BD08B512
:100E600069468DF800000320ABBE08BD014918207B
:100E7000ABBEFEE72600020000487047480900208C
:100E800030B5B0F10A024FEA900E71F100034EEA5C
:100E9000817EB0EB0E0061EB91014FEA101E4EEA2D
:100EA000017E10EB0E0041EB11114FEA102E4EEABD
:100EB000016E10EB0E0041EB11214FEA104E4EEA8D
:100EC000014E10EB0E0041EB1141401841F10001C1
:100ED0004FEAD00040EA41704FEAD10110EB8005A3
:100EE0004FEA810444EA907444EB01046D1944EB29
:100EF0000404521BA3414FF0000348BF0A3200D53F
:100F000030BD401C41F1000130BD00002DE9F04131
:100F10001F46044603260168072A01F4006004DB2B
:100F200008B116A505E016A503E008B115A500E077
:100F300015A521F010002060A069C01EA0610FB1AE
:100F4000401EA0612046AFF300804FB1D4E90121DB
:100F500038469047206A401C2062C01C206206E090
:100F6000206AFAE7D4E9012115F8010B9047761EB3
:100F7000F8D22046AFF30080BDE8F0814E414E002C
:100F80006E616E00494E4600696E66002DE9F047BD
:100F9000814616468AB0354878440DC88DE80D0064
:100FA00032487844801C03AC0DC884E80D0041F63B
:100FB0009B300844372190FBF1F290FBF1F5A5F14D
:100FC000800501FB12041B3C02D56442012000E0B5
:100FD0000020DFF898A080460027FA44AAF1BE0A54
:100FE0000EE0E0070AD03246684607EB47010123CE
:100FF0000AEB810100F05BFF8DE8070064107F1CA5
:10100000002CEED1194F7F44AE3F19E0E80715D010
:1010100007EB04100DF1180A90E80E008AE80E00A4
:10102000C068F04201D1981908903246012306A900
:1010300003A800F03CFF03AB83E807006D10641CBD
:10104000002DE3D14FF0010332466946B8F1000F9D
:1010500003A802D000F016FF01E000F028FFC9E964
:101060000001C9F808200AB0BDE8F087D8420000A6
:10107000007B00F08000704710B542485421FFF714
:10108000B3FA41485421FFF7AFFA40485421FFF723
:10109000ABFA3F493B483C4A3F4B08603D490A6038
:1010A0003A491960531C0365481C10650120086506
:1010B0003B48344A39A1784400F028F920B938482F
:1010C00078440A3800F0E4F937482F4A35A17844CB
:1010D00000F01CF920B9344878440A3800F0D8F9F7
:1010E00032482A4A2FA1784400F010F920B92F483D
:1010F00078440A3800F0CCF940232248DC00002173
:10110000224600F0E0F820B125487844543800F039
:10111000BFF91D4822464023002100F0D4F820B139
:1011200021487844543800F0B3F918482246102377
:10113000002100F0C8F8002806D01C487844BDE81B
:101140001040563800F0A4B910BD104870B5006DBD
:1011500020F001040B4800F04FF90B4800F04CF967
:101160000A4800F049F909E0206D20F00105204609
:1011700000F042F9204600F07FF82C46002CF3D115
:1011800070BD00002C08002080080020D40800203A
:10119000BC000020C0000020C4000020720000003D
:1011A000D241000077000000BE410000AA410000CB
:1011B00010B500F055F9BDE8104000F04CB90EB57F
:1011C000CDE9000100F04EFB029069460120ABBE64
:1011D0000EBD08B5694600900220ABBE08BD1FB524
:1011E0008DE8070069460520ABBE04B010BD1FB5F1
:1011F0008DE80F0069460620ABBEF6E708B56946E4
:1012000000900920ABBE08BD1CB5CDE900016946C0
:101210000A20ABBE1CBD704708B5694600900C2083
:10122000ABBE08BD004870472809002070477546CE
:10123000FFF7F8FFAE4605006946534620F0070069
:10124000854618B020B5FEF7B7FFBDE820404FF047
:1012500000064FF000074FF000084FF0000B21F0A0
:101260000701AC46ACE8C009ACE8C009ACE8C0096D
:10127000ACE8C0098D46704770B50446051F00F004
:101280004FF90068002C14BF446870BD002C18BFD3
:10129000AC423CBF20466468F8D301680A18AA42F1
:1012A00018BF456003D12A680546114401602868CB
:1012B0004119A1421CBF6C6070BD61686960216802
:1012C0000844286070BD70B5C468A50713D06502D6
:1012D00011D4B2F5807F09D0B2F5007F06D0B2F507
:1012E000806F08D1012300F1240106E05D1E6FF03C
:1012F0007F46B54201D3012070BD0161C3614160E9
:1013000024F470611143C160002070BD2DE9F041EB
:101310000C4607461646104600F06EF82078611C11
:1013200061280AD0722802D077283CD102E001253A
:10133000002405E00225042402E0082448F2020506
:1013400011F8010B2B2806D0622809D011F8010CE6
:1013500074280AD00BE045F0030544F00204EFE7DF
:1013600045F0040544F00104EAE744F0100438466F
:101370002146FFF724FF411C15D000213161716027
:101380004FF40071F560F1617061200704D53046BB
:101390000222002100F03EF9306D40F0010030657E
:1013A0003046BDE8F0810020FBE72DE9F0410D4615
:1013B0000646104C206DC10704D0410804D020F02F
:1013C0000104F7E722460EE0542000F0F4F807008D
:1013D0000ED0206D47F001010843542120653846A6
:1013E000FFF702F93A4629463046BDE8F0418DE75D
:1013F0000020D6E72C0800202DE9F04704464FF0E6
:1014000000094FF0FF37C568D4E90486A80707D064
:10141000204600F0AFF93046FFF7DBFE002802DA85
:101420003846BDE8F087280502D54046FFF724FF7F
:101430004C212046FFF7D8F8206D20F001002065F0
:101440004846EEE710B50446AFF300802046BDE8FD
:101450001040FEF79DBE002801D0FFF707BD704782
:1014600010B5002102A000F0C9F9012010BD000054
:10147000534947414252543A2041626E6F726D6146
:101480006C207465726D696E6174696F6E00000026
:1014900010B500F0CDF9BDE81040FFF7DCBF00004B
:1014A0004FF0013C50F8042B51F8043B9A4221D1F3
:1014B000A2EB0C03934313EACC1317D150F8042B7F
:1014C00051F8043B9A4215D1A2EB0C03934313EA63
:1014D000CC130BD150F8042B51F8043B9A4209D19C
:1014E000A2EB0C03934313EACC13DBD04FF00000C4
:1014F000704700BFD01A01BAB1FA81F101F01801AA
:1015000022FA01F0CB40C1F12001DBB2C0B2C01A17
:101510002CFA01F3D11A914311EAC311E6D17047B5
:101520000048704730090020704770477047704787
:1015300038B504460A4600206946AFF3008000280B
:1015400008BF38BD02460099204600F0B1F90120DD
:1015500038BD012000F0E7B9F8B5AFF300800546CB
:1015600000200C46102000BF0646A819A0420DD945
:10157000324669460020AFF30080070008BF00F044
:10158000D2F90098A04218BF0546C419FFF7C8FF5A
:1015900005600746F01D20F007004619284600F0B8
:1015A00080F9B44208BFF8BDA21B31463868BDE8D7
:1015B000F84000F07DB970B50646FFF7B1FF056849
:1015C00006F10B0020F00704B4429CBF002070BD60
:1015D0002B466A68BAB11068A04210D304F1080122
:1015E00088423CBF5068586007D351681019416069
:1015F0001168091B016058601460101D70BD13460E
:101600005268002AE7D121462846FFF791FF0028BB
:10161000DED170BD2DE9F041044616460D464769FE
:10162000007B80072ED03846FFF7E8FD50BB3EB365
:10163000012E02D0022E25D104E0204600F052F9FE
:1016400005441DE03846FFF7E7FDE168002841F05A
:101650001001E16005DA204600F058F80120BDE8ED
:10166000F081C9030BD56268E16A914200D8114646
:10167000A26911442269891A814200DD08460544A5
:10168000002D01DA0220EAE7E16A6068E26881423F
:1016900006D29103E06203D522F4003141F010023A
:1016A000A6690027AE4213DCE16A814201D90B46EC
:1016B00000E0034603EB060C2369ACEB030CAC45DE
:1016C00006DD814201D98C4600E084469C4505D167
:1016D000A760276042F02000A5620DE0AD1BE6691F
:1016E000AE1B8142A66000D90846C01A281A2060A5
:1016F0005819606022F0200003490840E060002093
:1017000084F84870ABE70000BFCFD7FFC16821F471
:10171000001141F08001C1600021816001607047CB
:101720002DE9F047814614460E464FF0FF38324807
:10173000D5685769054209D03846A169FFF764FDAD
:10174000002811DB2C48C0430540E5602B4632469B
:1017500049463846FFF743FDA16920F00042B21A1E
:1017600011440028A16103D02046FFF7CFFF404677
:10177000BDE8F08770B504460569C06A61688842B3
:1017800000D80846E16821F42011E160C90312D5B0
:10179000A84208D02246411B2846FFF7C1FF10B1DE
:1017A0004FF0FF3070BD0020E562C4E90150E068F1
:1017B00020F48030E060002070BD10B50446C068A1
:1017C00020F02000E060A16AA06988420DD0204688
:1017D000FFF7D0FFE06820F4405040F01000E060D8
:1017E000A06AA0612069E062606044F24001E068A4
:1017F0008843E06010BD00001000020070B505468F
:101800000C460A2000E06D1CFFF729FB35B1287853
:101810000028F8D102E0641CFFF721FB14B1207806
:101820000028F8D1BDE870400A20FFF718BB00007F
:1018300010B5014602A0FFF7E1FF012010BD000036
:1018400053494752545245443A205265646972657F
:1018500063743A2063616E2774206F70656E3A205E
:101860000000000010B5431C02E010F8011B71B12C
:101870008107FAD14FF0013202C88C1A8C4314EA66
:10188000C211F9D0C01A0A0603D0C01E10BDC01A7A
:1018900010BD0A0401D0801E10BD0902FCD0401EFC
:1018A00010BD00210160C0E9011070471020704791
:1018B000034640688C46002818BF88423CBF034658
:1018C0004068F8D318681844884207D00CF1030028
:1018D00020F00700001D411A521A0146081D0A6037
:1018E000FFF7CABC10B50146C268900703D0900646
:1018F00007D5886A0AE000F01DF801210160881E02
:1019000010BD8B69486818440B69C01A91F84830BB
:101910001BB191F84910401A10BD1103FCD50028E5
:10192000FADD401E10BD10B500F008F8BDE810400B
:10193000FFF791BD004870472809002010B5012825
:1019400005D0002103A0FFF759FF012010BD09A118
:10195000F8E7000053494752544D454D3A204F7522
:1019600074206F662068656170206D656D6F727997
:10197000000000003A2048656170206D656D6F724F
:101980007920636F72727570746564005FEA400C51
:1019900008BF91F0000F4FEA8C234FEAC12243EABF
:1019A00051514FEA1C5018BF00F5F0404FEA30008B
:1019B00018BF41F000415FEA6C5C00F02980BCF187
:1019C000FF3F08BF40F080407047130C06BF120471
:1019D0004FF0100C4FF0000C130E04BF12020CF16C
:1019E000080C130F04BF12010CF1040C930F04BF79
:1019F00092000CF1020CD30F04BF52000CF1010C49
:101A000011464FF00002A0F11F00A0EB0C00704740
:101A100011F0004F08BF704731F000413FF4D5AFDF
:101A20000B0C06BF09044FF0100C4FF0000C0B0E0E
:101A300004BF09020CF1080C0B0F04BF09010CF1E3
:101A4000040C8B0F04BF89000CF1020CCB0F04BFF8
:101A500049000CF1010CCCF12003A0EB0C0022FAA0
:101A600003F302FA0CF241EA030100F101007047AE
:101A700020F07F4C80EA030023F07F47ACEB0703A4
:101A800003F57C5300F0004003F1FF032DE980498A
:101A90004FEA154B09B44FEA144325EA0B4E24EAEA
:101AA00003480FF2042606EB132749083E785FEA45
:101AB000320203FB0667C7F5000707FB06F64FEA8D
:101AC00054374FEAD64606F1020607FB066CCCF106
:101AD000005C4FEA1C472CEA074C07FB06F40CFBA2
:101AE00006F504EB15464FEA961634BF00204FF07A
:101AF00000404FEAD13706FB07FC4FEA1C4C0CFBB9
:101B00000BF7D21B03FB0CF761EB07010CFB0EF785
:101B1000B0EB074072EB17420CFB08F734BFA2EBA7
:101B20000742B2EB074261EB17414FEA0C444FEA20
:101B3000910706FB07FC4FEA1C4C0CFB0BF7B0EBC4
:101B4000C74072EB573203FB0CF734BFA2EBC7421E
:101B5000B2EBC74261EB57310CFB0EF7B0EBC7009D
:101B600072EB57720CFB08F734BFA2EBC702B2EB63
:101B7000C70261EB5771039F4FEA816141EA9211FD
:101B800004EBCC044FEAD1374FEA826206FB07FC34
:101B900042EA90124FEA80604FEA1C4C0CFB0BF7B4
:101BA000D21B03FB0CF761EB07010CFB0EF7B0EB4C
:101BB000074072EB17420CFB08F734BFA2EB074259
:101BC000B2EB074261EB17414FEA8C554FEA9107A0
:101BD00004EB9C2406FB07FC4FEA1C4C0CFB0BF7A8
:101BE000B0EBC74072EB573203FB0CF734BFA2EBEC
:101BF000C742B2EBC74261EB57310CFB0EF7B0EBBB
:101C0000C70072EB57720CFB08F734BFA2EBC70298
:101C1000B2EBC70261EB577115EB4C254FEA8161BE
:101C200041EA92114FEA82624FEAD13742EA9012BA
:101C300006FB07FC44F100044FEA80604FEA1C4CAD
:101C40000CFB0BF7D21B03FB0CF761EB07010CFB42
:101C50000EF7B0EB074072EB17420CFB08F734BFEE
:101C6000A2EB0742B2EB074261EB174115EB1C15E3
:101C70004FEA813141EA92414FEA823242EA904290
:101C80004FEA80304FEA0C7644F1000448EA0343FF
:101C90004EEA0B484FF0000EB2EB080C71EB030755
:101CA00024BF624639464EEB0E0E4FF0000B001873
:101CB000524149414BEB0B0BB2EB080C71EB0307A4
:101CC0007BF1000B24BF624639464EEB0E0E4FF0FF
:101CD000000B0018524149414BEB0B0BB2EB080CC7
:101CE00071EB03077BF1000B24BF624639464EEBD4
:101CF0000E0E51EA020718BF46F0010616EB0E76EB
:101D000055F1000254F1000103D5BDE88901BDE899
:101D10000088BDE88901BDE80048B619524141EB91
:101D20000101A3F10103704780807F7E7D7C7B7A77
:101D30007978777676757473727171706F6E6E6D77
:101D40006C6C6B6A6A69686867666665646463631D
:101D500062616160605F5F5E5E5D5D5C5C5B5B5AA3
:101D60005A59595858575756565555555454535310
:101D700052525251515050504F4F4F4E4E4D4D4D6B
:101D80004C4C4C4B4B4B4A4A4A49494948484847B6
:101D900047474746464645454544444444434343F4
:101DA0004342424242414141002B9C4630D477009D
:101DB0002BD01CB54FEA370703B44FF010004FF09B
:101DC0001001BAF1000F06D0BCF1000FDCBF40F0EB
:101DD000080040F008014FF000000FBCBDE81040C3
:101DE0000BF1010BBBF1010F08BF5FEA170722BF20
:101DF00012F1010211F101014FF0004143F1000322
:101E000000F0004043EA00007047F9D35708D0E7DC
:101E100046EA064613F1400F4FEA16461FDD13F15E
:101E2000200FDFBF16430A46002120335B42BED09D
:101E3000C3F1200746EA064602FA07F74FEA1646BC
:101E400046EA0706C3F1200722FA03F201FA07F770
:101E500021FA03F14FF0000342EA0702A7E746EA3E
:101E6000020646EA06464FEA164646EA0106BCBFA7
:101E700046EA0646360C4FF000034FF000024FF0E2
:101E8000000194E72DE9804C9A46934670B491E89E
:101E9000380007C831EA400C48BF34EA430C03D588
:101EA000FFF7E6FDFFF780FFF0BCBDE8008C2DE9F1
:101EB000804C9A46934670B491E8380007C810F0F9
:101EC000804F08BF13F0804F03D100F005F8FFF7F3
:101ED0006BFFF0BCBDE8008C20F07F4780EA030078
:101EE00023F07F4C07EB0C03A3F57C5300F000407C
:101EF000A3F1FE0392F0000F00F0B38095F0000F05
:101F000000F077802DE901494FEA11404FEA14466D
:101F100021EA004800FB06FC24EA064708FB06F617
:101F200007FB08F800FB07F718EB06484CEB164CCC
:101F30004FEA124B18EB07484FEA15464CEB174097
:101F400022EA0B4E0BFB06FC25EA06470EFB06F6C3
:101F500007FB0EFE0BFB07F71EEB064E4CEB164C79
:101F60004FF000061EEB074E4CEB174B18EB0B081F
:101F700040F1000018EB0E0B58EB000840F1000098
:101F80008F1A4FF000013CBFC943661B14BFB5EB6D
:101F9000040C00213CBFC943F61B4FEA17444EEA2C
:101FA0008E0E27EA04454FEA1C4704FB07622CEA21
:101FB000074C05FB07F70CFB05F604FB0CFC16EBC6
:101FC000074642EB174216EB0C4642EB1C421BEB5A
:101FD000060658EB0202414146EA9E0601D5BDE8DD
:101FE0000189B619524141EB0101A3F10103BDE89A
:101FF00001894FEA14454FEA114724EA054621EAD0
:10200000074C05FB07F406FB07F70CFB06F105FB85
:102010000CFC11EB074144EB17444FEA124711EB5C
:102020000C4144EB1C4422EA074C05FB07F206FB7B
:1020300007F70CFB06F605FB0CFC16EB074642EB1C
:10204000174216EB0C4642EB1C456A1854F100018E
:1020500048BF7047B619524141EB0101A3F101039A
:10206000704795F0000F37D04FEA11424FEA1447FE
:1020700021EA024624EA074C02FB07F106FB07F7B8
:102080000CFB06F402FB0CFC14EB074441EB17417C
:102090004FEA154714EB0C4441EB1C4125EA074C71
:1020A00002FB07F506FB07F70CFB06F602FB0CFC30
:1020B00016EB074645EB174516EB0C4645EB1C4265
:1020C000121951F1000148BF7047B619524141EB56
:1020D0000101A3F1010370474FEA14454FEA11478C
:1020E00024EA054621EA074C05FB07F106FB07F742
:1020F0000CFB06F24FF0000605FB0CFC12EB07424E
:1021000041EB174112EB0C4251EB1C4148BF7047A9
:10211000921841EB0101A3F101037047704770472A
:1021200000BFFEE7704770471FB500208DF805001F
:1021300008208DF8060000208DF804002548407B1B
:1021400040F0200080040090234800680178234874
:10215000007861F3C700214908700846007820F034
:102160000700401C08701E4800680068C1F80100A4
:102170001B48006890F90800487119480068807A87
:1021800042090846817962F386118171144800681A
:10219000807A82091148817962F3C711817180794F
:1021A00020F007010D4881718021C171014603C9EA
:1021B000CDE902014FF4F0714FF0804000F001F9D9
:1021C0006A460221480700F09CFA06A0FEF72AF8AA
:1021D0001FBD0000D800002040000020200000208B
:1021E000380000207075745F41310D0A0000000056
:1021F00002460B4B186AB2F1804F05D140F0807057
:1022000020F0FF00084308E0064B9A4205D140F059
:10221000007020F47F4040EA0120014B18627047B3
:1022200000000240008000402DE9F04104460D46C8
:1022300017461E46DDF8188004F5A06040F83560AA
:1022400000EBC500C0F804803A462946204600F05D
:102250003AFA032104F1400040F82510BDE8F0816E
:1022600000F1400252F8212042F0010300F1400247
:1022700042F82130704700001FB500208DF805009E
:1022800008208DF8060000208DF804002A48407BC5
:1022900040F40070800400902848006801782848C5
:1022A000007861F3C700264908700846007820F0DE
:1022B0000700087023480068007800F0F00030B193
:1022C0000846407820F080008030487005E01C48C7
:1022D000407820F080001A4948701A480068007859
:1022E00081091748407861F38610154948701548F0
:1022F0000068007841091248407861F345101049A0
:10230000487010480068007801090D48807861F332
:10231000C7100B49887003C9CDE902014FF4F07171
:102320004FF0804000F04DF86A4603214FF08040A6
:1023300000F0E7F91FBD0000D80000204000002099
:10234000180000203C00002010B500F1400353F8B5
:102350002130934300F1400444F8213010BD0A4677
:10236000016812B141F0010101E021F001010160B9
:10237000704700220260426082600261C261C0F860
:10238000C020C0F8C820002105E0002300F1400271
:1023900042F82130491C2029F7D37047024602F148
:1023A000400050F8210070470146086800F0010025
:1023B00008B9002070470120FCE701464868000E7C
:1023C000704742688A434260704770B500220D78BA
:1023D0000DB142F010024D780DB142F008028D7837
:1023E0000DB142F00402CD780DB142F0020202605C
:1023F000D1E901563544CE6835440E6935440E8B1B
:10240000AC194D692C43846000230AE0002600F5D6
:10241000A06505EBC3056E6000F5A06545F8336067
:102420005B1C202BF2D38D7EC56170BD2DE9F04180
:1024300005460E46144605F5007101EB0611081D10
:1024400000F03AF9074607F00F00A0710020E07194
:1024500007F4807008B10120E0710020607107F47A
:10246000805008B1012060710020207105F1400109
:1024700001EB860000F020F9074607F0040008B1E0
:102480000120207105F5007101EB061000F014F930
:10249000206005F5007101EB061101F1080000F064
:1024A0000BF9A06005F5007101EB061101F10C00BC
:1024B00000F002F9E060BDE8F081000010B54FF0D7
:1024C0008040FFF77AFF7F2804D900214FF0804039
:1024D000FFF745FF00214FF08040FFF75FFF00F05E
:1024E000400000283CD0694A00214FF08040FFF7AF
:1024F0009DFF66488079082818D16448C079A8B93A
:102500006248007A624909680978002242EAC101FA
:1025100088420BD15F48006802F068FB5E480068A3
:10252000007820F080005C4909680870574880797D
:1025300088B95648C07901280DD1FFF79DFE56484D
:102540000068007820F080005349096808705348FB
:10255000006802F061FB402200211006FFF7F4FE44
:1025600001218807FFF71AFF00F04000D8B3474A5F
:1025700001218807FFF75AFF44488079082818D1BD
:102580004248C079A8B94148007A414909680978A8
:10259000002242EAC10188420BD13E48006802F0A5
:1025A00025FB3D480068007820F080003A49096822
:1025B00008703648807988B93448C07901280DD12F
:1025C000FFF75AFE34480068007820F08000324956
:1025D000096808703148006802F01EFB40220121A2
:1025E0008807FFF7B1FE04210807FFF7D7FE00F0C8
:1025F0004000002848D0254A04210807FFF716FFAD
:102600002248007A224909680978002242EAC10179
:10261000884210D122491D4AD2E9020205C1083977
:10262000B1F8010002F066FC04461E4902F0A0FB6E
:102630001D49096848601548007A154909680978F4
:10264000072202EBC101884219D118480F4AD2E98A
:10265000021206C008384078C00980B100BFBFF33D
:102660004F8F1348006800F4E06012490843001DD2
:102670000F490860BFF34F8F00BF00BFFEE7402245
:1026800004210807FFF760FE10BD0000C80000200D
:1026900040000020140000203C000020100000201A
:1026A000280000200000C842380000203000002030
:1026B0000CED00E00000FA05014672B6086800B9AA
:1026C000086862B6704710B5002302B1042343F0D6
:1026D000030300F1400444F8213010BD00210170D3
:1026E00041708170C17041604FF4002181604FF0F2
:1026F000A071C1600021016141610183FF218176E8
:10270000704730B5034654791CB9947904F52060BC
:1027100002E0947904F5D05003F5007404EB011441
:10272000606003F5007404EB01141568256003F57F
:10273000007404EB01149568A56003F5007404EBC4
:102740000114D568E560002014790CB140F0100048
:1027500040F0200040F0010003F1400444F8210063
:1027600030BD704770B50025012001F0E5F907E0A4
:1027700001F000FA0446012C00D103E0681CC5B248
:102780000A2DF5DB00BF012C03D00121104801F018
:1027900026FA0921022001F025F8012001F01CF899
:1027A00000BF01F03FF80128FBD10121082001F012
:1027B000FBF9182000F02CF8002001F053F801205C
:1027C00001F04AF84FF4807001F058F870BD000035
:1027D0004400002010B50123034A0021FA2002F032
:1027E000C5F90249086010BD094A0008B40000207C
:1027F0007047704700B5014600F04AFA024600E013
:1028000000BF00F045FA801A8842F9D300BD0000ED
:102810000149086070470000008001407047704720
:102820007047704710B5094800F03BFA002107488F
:1028300001F0D5F900F0D2FD2021054800F0A2FDFD
:1028400000F0C0F9002000F0ADF910BD68000020D4
:1028500000800A4010B506A0FDF7E4FC012000F05E
:10286000A1F9012005490870FFF7B4FF10BD000071
:102870004D4E505F72657365740D0A006400002050
:1028800010B5064800F050FB3220FFF7B3FF4FF4BD
:10289000FA61024801F0D4F910BD000008030020DD
:1028A00010B502210D4801F033FB012815D102219A
:1028B0000A4801F0D4FA2021094800F063FD002104
:1028C000064801F0D0FA07A0FDF7ACFC0848807A72
:1028D00020F0100010300649887210BD000007403B
:1028E00000800A405050535F656E640D0A0000007E
:1028F000D800002000B58FB00121464801F054F9FE
:10290000454801F0E3FA06A801F0D2FA0020ADF83C
:102910002000ADF82600ADF81A004FF6FF70ADF8B4
:102920001C000020ADF81800ADF8240006A93A48B4
:1029300001F0A3FA684601F084FA4FF40040ADF8C4
:1029400002000020ADF80400ADF80E00ADF8140050
:102950000120ADF816000220ADF810000320ADF8FC
:10296000000069462C4801F049FA0CA800F026FD49
:102970008020ADF8300003208DF8380000208DF85D
:10298000320001208DF83A0003208DF839000CA99F
:10299000224800F013FC00211F4801F005FA012233
:1029A00011021D4801F0C0FA0921102000F0F2FBCD
:1029B000102000F0E4FB0121174801F054FA1848F8
:1029C00001F084FA06A801F073FA0720ADF81A00A6
:1029D0003B20ADF81C000020ADF81E00ADF8200033
:1029E000ADF82600ADF8180006A90D4801F045FA2B
:1029F00000210B4801F0D8F901220221084801F01A
:102A000093FA08210E2000F0C5FB0E2000F0B7FB62
:102A10000FB000BD004041000000084000000B4026
:102A20000000074010B54FF48071124801F070FAB1
:102A300001281ED101020F4801F011FA0E48807AD8
:102A40000121B1EBD01F10D100210C4801F075FA23
:102A500001210A4801F007FA0123094A002140F246
:102A6000523002F083F8074908600748006802F016
:102A7000D3F810BD00000840D80000200000074037
:102A8000594A0008A8000020AC0000202DE9D04FD2
:102A900090B08246DAF868B036484168584602F08D
:102AA0003DFA34D2DAF850000890DAF84C00099078
:102AB000DAF84800A0F26C700A90DAF85400079037
:102AC000DAF858000690DAF85C003C2802D13B2086
:102AD000059002E0DAF85C00059005A801F078FDA9
:102AE00004462549601A234908600846407A00F0E8
:102AF000040020B90846407A401C487237E01D485F
:102B0000807A20F0800080301A4988722FE01948BE
:102B1000407A002804DD1748407A401E1549487263
:102B20001448807A20F0800012498872DAF8680030
:102B300002F0E6F806460F46DAF86C0002F0E0F81C
:102B400080460B469AF8A000C0F340109AF8A010F7
:102B5000C1F300114246CDE90067CDE9021007A19B
:102B60000E48FDF76BFB0D490DA0FDF75BFB10B0A8
:102B7000BDE8D08FD800002080436D3870444F509E
:102B80003D25302E32662C2067444F503D25302E97
:102B900032662C2025752025750D0A0020050020A1
:102BA0002573000010B50446012C04D1022104480D
:102BB00000F0E8FB03E00221014800F0F1FB10BD4A
:102BC00000800B400EB50121C80500F0EDFF6846FE
:102BD00000F0F4FB0220ADF8000001208DF80200A7
:102BE00000208DF8080001208DF80A0003208DF8E0
:102BF000090001208DF804006946024800F0DEFA61
:102C00000EBD000000800B4010B54FF0FF3412489D
:102C100000F0A7FD00281CDD104800F0FDFB041E9D
:102C200017DD0F48C07A20F040000D49C87200F04F
:102C3000CBFF012C0DD10948FFF728FF0848807A07
:102C4000C00930B10648807A20F0080008300449F5
:102C50008872204610BD000060050020F0000020B2
:102C6000D800002070B58AB0002500240026282254
:102C700006496846FDF764FC06241F2C02D0204656
:102C80000AB070BD4FF0FF30FAE700002050000896
:102C900001480068704700008C00002000BFFEE77C
:102CA000704710B5044604F1080000F004F820460F
:102CB00000F001F810BD3EB504462168C1F3C432EE
:102CC000012101FA02F000F06FFF684600F076FB88
:102CD000A088ADF8000001208DF8020000208DF8DA
:102CE000080001208DF80A008DF809006946206867
:102CF00000F064FA3EBD000010B58CB00446614897
:102D0000046004F10B0060490860401C5F490860E2
:102D10005F480968C1F8060008205C490968087026
:102D20005C485A490968C1F802000121480500F0D1
:102D30003BFF09A800F042FB02208DF82C00012087
:102D40008DF82E008DF82D008020ADF82400002095
:102D50008DF8260009A9504800F030FA4020ADF85F
:102D6000240001208DF8260009A94B4800F026FA1E
:102D70000121084600F018FF00214FF08040FFF7C6
:102D800037FA4FF08040FFF7F4FA02A8FFF7A6FCED
:102D900001208DF8080000208DF80A008DF80B0046
:102DA0003A490968D1F802008047384909684870F3
:102DB0003A4890F90D00401C38B9002033490968A1
:102DC000487001208DF8090002E000208DF809000C
:102DD0004FF4803003904FF4401004904FF0A070F7
:102DE00005904FF00070069080000790FF208DF84E
:102DF00022002720ADF8200002A94FF08040FFF705
:102E0000E4FA22480068407840F400708004244BC3
:102E10000022114600904FF08040FFF705FA1B4852
:102E20000068407840F4007080041D4B00220121AE
:102E300000908807FFF7F8F902214807FFF710FA1A
:102E400003214FF08040FFF70BFA104800684078EC
:102E500040F480708004124B002204210090080787
:102E6000FFF7E2F901218807FFF779FA01230D4AFC
:102E7000194641F2883001F079FE0B4908600CB028
:102E800010BD0000380000203C0000204000002061
:102E900029210008652C000800800A40D800002085
:102EA0000000FC1F354B00081000002001201449D1
:102EB00081F810021348807A20F0080011498872C6
:102EC0000846807A20F0100088720020086008729E
:102ED0000846807A20F0200088720846807A20F028
:102EE00040008872002048720846807A20F08000F6
:102EF00088724FF0814048600020C872704700001F
:102F0000F0000020D800002010B502460B46002437
:102F1000002104E032F81100204484B2491C994297
:102F2000F8D3604280B210BD10B50446208A20F06C
:102F30000100401C2082208A20F004002082208A88
:102F400020F0800080302082208A20F00200208241
:102F5000208A20F078002082207C00F500702082FA
:102F600000216182A06920F0FF01491CA161A069D4
:102F7000C0F3150101F18071A161E06920F0FF014A
:102F8000491CE161E069C0F3150101F18071E16163
:102F9000606A20F00401091D6162606A20F0080186
:102FA00008316162606A20F040016162606A20F06D
:102FB00080016162606A20F4807101F58071616254
:102FC000606A20F4007101F500716162606A20F4AA
:102FD000806101F580616162606A20F40061616274
:102FE000606A20F4805101F580516162606A20F4CA
:102FF000005101F500516162606A20F4803101F5F1
:1030000080316162606A20F4003101F50031616253
:10301000606A20F4802101F580216162606A20F4F9
:1030200000216162606A20F480116162606A20F4AC
:1030300000116162606A20F0807101F1807161624B
:10304000606A20F0007101F100716162606A20F035
:10305000806101F180616162606A20F0006101F1CC
:1030600000616162A06A20F00101491CA162A06AAE
:1030700020F00201A162A06A20F00401A162A06A0E
:1030800020F00801A162A06A20F4807101F580712E
:10309000A162A06A20F40071A162A06A20F480619C
:1030A000A162A06A20F40061A1620E2240F6BE3146
:1030B000204600F001F810BD70B504460E461546D6
:1030C00048F2FF1020806680A5800020E080042167
:1030D0002046FFF719FF2081294604F11000FFF771
:1030E00013FF04F1100121F815000A21204600F019
:1030F00037F8681C4FF6FF7202EA400104F1100035
:1031000000F02EF870BD000010B501234FF4E1323D
:1031100040210E4801F040F80D4A4FF4E1310B48D0
:1031200000F040FF00234FF4E1328021094801F014
:1031300033F8074A4FF4E131064800F033FF4FF40B
:1031400000720549054800F01EFB10BD0000034059
:1031500000B4C404008003406C050020600500201A
:1031600070B504460D462A462146024801F0CAF8C9
:1031700070BD00000000034000BFFEE7704700F094
:103180001F02012191404209920002F1E022C2F89F
:103190000011704710B5002807DA4A07140E054AD7
:1031A00000F00F031B1FD45403E04A07130E024A1A
:1031B000135410BD18ED00E000E400E02DE9FE4FCF
:1031C0004768D0F808C0D0F80C80D0F81090D0F83C
:1031D00014A0CDF808A0D0F818A0CDF804A0D0F81D
:1031E0001CA0CDF800A00022012303254FF00116FA
:1031F0000C885FE004F0010ABAF1000F55D027EA0D
:10320000030A91F802B00BFA02FB4AEA0B0791F8A5
:1032100008A04FEA420B0AFA0BFA2CEA050B4AEA1D
:103220000B0C28EA030A91F80AB00BFA02FB4AEAEF
:103230000B0829EA060A91F803B002F1100E0BFA06
:103240000EFB4AEA0B0A91F804B00BFA02FB4AEAB9
:103250000B09DDF808A02AEA060A91F805B00BFA76
:103260000EFB4AEA0B0A91F806B00BFA02FB4AEA97
:103270000B0ACDF808A091F809A04FEA420B0AFA10
:103280000BFADDF804B02BEA050B4AEA0B0ACDF87D
:1032900004A0DDF800A02AEA030A91F807B00BFAAF
:1032A00002FB4AEA0B0ACDF800A05B00AD007600F5
:1032B000521C6408002C9DD1DFF8C4A0504502D1F7
:1032C0004FF01F0A01E04FF0000A27EA0A0AC0F88F
:1032D00004A0DFF8ACA0504502D14FF01F0A01E076
:1032E0004FF0000A2CEA0A0AC0F808A0DFF890A004
:1032F000504502D14FF01F0A01E04FF0000A28EAC2
:103300000A0AC0F80CA0DFF878A0504502D14FF0AF
:103310001F0A01E04FF0000A29EA0A0AC0F810A0CB
:10332000DFF85CA0504502D14FF01F0B01E04FF0D9
:10333000000BDDF808A02AEA0B0AC0F814A0DFF899
:1033400040A0504502D14FF01F0B01E04FF0000BA1
:10335000DDF804A02AEA0B0AC0F818A0DFF820A0C4
:10336000504502D14FF01F0B01E04FF0000BDDF88C
:1033700000A02AEA0B0AC0F81CA0BDE8FE8F0000DE
:1033800000000C400268054B984201D11F2300E069
:1033900000230B439A4302607047000000000C407A
:1033A0000268054B984201D11F2300E000239A4395
:1033B0000A4302607047000000000C404FF6FF71A6
:1033C000018000218170C170017141718171C171F1
:1033D0000172417281727047704700000EB5012181
:1033E000480500F0E1FB6846FFF7E8FF2020ADF854
:1033F000000001208DF8020000208DF80800012057
:103400008DF80A0003208DF8090069460148FFF78E
:10341000D5FE0EBD00800A40F8B504464FF0FF36D9
:1034200048F2FF1020801DE1924800F0BBF90546EC
:1034300094F810020D287DD2DFE800F07C070E1909
:103440001E232830353A3F4463002078A84202D139
:10345000022084F8100204E16078A84203D103201E
:1034600084F8100202E0012084F81002F9E0042040
:1034700084F81002A570F4E0052084F81002E570CD
:10348000EFE0062084F810022571EAE0072084F8B6
:1034900010026571002078490880E2E0A5710820DB
:1034A00084F81002DDE0E571092084F81002D8E00C
:1034B00025720A2084F81002D3E065720B2084F88C
:1034C0001002CEE0A08840006B490988884211DDD7
:1034D00004F1100068490988455467480088401C79
:1034E0006549088008460088B0F5007F08DB0020A9
:1034F000088005E00020604908800C2084F8100254
:10350000AFE0012084F8100204212046FFF7FCFC04
:103510002189884274D1608840F6BA32811A90427B
:103520003BD00DDCA0F6980000286BD0B0F5487FAA
:103530000DD000E094E0A0F22130002871D114E019
:10354000012936D0042940D009296AD119E0E06D5B
:1035500000904AA14F48D4E91523FCF76FFE4D496E
:103560004DA0FCF75FFE012666E0A38862884BA1B0
:103570004848FCF763FE474947A0FCF753FE022684
:103580005AE0A388628845A14248FCF757FE4149AA
:1035900041A0FCF747FE03264EE0A38862883FA1C6
:1035A0003C48FCF74BFE3B493BA0FCF73BFE0426A6
:1035B00042E0A388628839A13648FCF73FFE3549CE
:1035C00035A0FCF72FFE052636E0208A030AA288E4
:1035D00038A13048FCF732FE2E492FA0FCF722FE1E
:1035E000208A0721B1EB102F08D13CA1294862693C
:1035F000FCF724FE274928A0FCF714FE06261BE052
:103600001BE0FFE7E0880090A388628837A121488B
:10361000FCF714FE1F4920A0FCF704FE07260BE070
:10362000FFE7A388628839A11A48FCF707FE194909
:1036300019A0FCF7F7FD00BF0EE004212046FFF7BC
:1036400063FC074623893A4639A11248FCF7F6FD88
:10365000104911A0FCF7E6FD064800F078F800E0FC
:1036600000BF00BF034800F07CF800283FF7DCAE45
:103670003046F8BD6005002066000020686F757256
:103680003D25642C6D696E3D25642C7365633D2575
:10369000640D0A00200500202573000069643D25A3
:1036A000782C20646174615F73697A653D25780DBB
:1036B0000A000000676574206D7367333030362C64
:1036C00020646174615F73697A653D25782C20639D
:1036D0006F64653D25750D0A00000000696E746514
:1036E0007276616C3D25750D0A00000069643D2508
:1036F000782C20646174615F73697A653D25782C4C
:103700002064756D6D793D25780D0A0070617263D6
:10371000696E675F6572726F722C69643D25782CE3
:10372000646174615F73697A653D25780D0A0000F4
:103730004352435F6865616465725F6572726F7260
:103740002C202578213D25780D0A0000704710B502
:1037500004460020A080E08021892068FCF722FF39
:1037600010BD014600208A88CB889A4206DA0A8971
:103770008B881A44CB88D21A90B203E08A88CB880F
:10378000D21A90B2704770B504460D46164626818F
:1037900025602046FFF7DBFF206808B1012070BDDF
:1037A0000020FCE70146CB885A1CCA800A68D05C1E
:1037B000CA880B899A4201DB0022CA80704783883D
:1037C0005A1C82800268D154828803899A4201DBA4
:1037D00000228280704700000149086070470000A5
:1037E0008800404210B502460C4BD86820F0030018
:1037F0001043D860586820F4706040EA0120586097
:10380000074B1B6843B10123054C241D2360002393
:10381000034C883CC4F88C3010BD0000000002400E
:103820008800404238B50020009000BF212000F001
:1038300069F905460098401C00900098B0F5C06FEB
:1038400001D2002DF2D0212000F05CF908B1012452
:1038500000E00024204638BD0149086070470000A0
:10386000880140420146044AD06820F0F00040EA56
:103870000110D06070470000000002400146034A7A
:10388000D06820F440700843D060704700000240C8
:103890002DE9FC4F0146DFF864B2DBF80CB00BF009
:1038A000020BBBF1000F01D0954B00E0944BDFF809
:1038B0004CB2DBF80CB00BF0010BBBF1000F00D0E9
:1038C0005B081C46DFF834B2DBF80CB00BF0040BDD
:1038D000BBF1000F0DD0DFF824B2DBF804B0CBF35E
:1038E000032B0BF1010BCDF800B0DDF800B004FBA9
:1038F0000BF4DFF808B2DBF80CB0CBF3012BBBF113
:10390000000F06D0BBF1010F08D0BBF1020F28D188
:1039100022E0DFF8ECB1C1F800B027E0DFF8DCB15D
:10392000DBF80CB04FF0080E0EEA1B1BBBF1000FCA
:1039300001D1A0460DE0DFF8C4B1DBF80CB0CBF349
:10394000021B0BF1010B4FF0010E0EFA0BFEB4FB44
:10395000FEF8C1F8008009E04FF4004BC1F800B058
:1039600004E049F6404BC1F800B000BF00BFDFF8EB
:103970008CB1DBF810B00BF0020BBBF1000F01D0E3
:103980005F4D00E05E4DDFF874B1DBF810B00BF076
:10399000010BBBF1000F00D06D082F46DFF85CB1C2
:1039A000DBF810B00BF0040BBBF1000F0DD0DFF80B
:1039B0004CB1DBF804B0CBF3031B0BF1010BCDF8DA
:1039C00000B0DDF800B007FB0BF7B946DFF82CB10B
:1039D000DBF810B00BF0100BBBF1000F01D04FEA79
:1039E0005909C1F80490DFF814B1DBF818B04FEAB8
:1039F0001B1000F0080BBBF1000F02D1DFF800C173
:103A00000BE000F0070B0BF1010B4FF0010E0EFA6B
:103A10000BF0DFF8ECB0BBFBF0FCC1F80CC0DFF83A
:103A2000DCB0DBF8180000F0080BBBF1000F04D18C
:103A3000DFF8CCB0CDF804B00DE000F0070B0BF1CF
:103A4000010B4FF0010E0EFA0BF0DFF8B4B0BBFB28
:103A5000F0FBCDF804B0DDF804B0C1F810B0DFF829
:103A60009CB0DBF814B00BF0030BBBF1000F06D0D9
:103A7000BBF1010F05D0BBF1020F06D103E01E46DA
:103A800005E02E4603E0264601E03E4600BF00BFAB
:103A9000DFF868B0DBF814B0CBF3011BBBF1000F0B
:103AA00006D0BBF1010F06D0BBF1020F08D105E033
:103AB0004FF4004206E049F6404203E0324601E09E
:103AC000624600BF00BFDFF834B0DBF814B04FEA45
:103AD0001B2000F0080BBBF1000F01D1924609E05A
:103AE00000F0070B0BF1010B4FF0010E0EFA0BF07B
:103AF000B2FBF0FAC1F808A0BDE8FC8F000002405C
:103B000000127A0010B5014601F0E003202B02D12B
:103B1000074B1A6801E0074BDA6B01F01F04012321
:103B2000A34013400BB1012000E0002010BD0000B5
:103B30000000024000800D400D49896821F003011A
:103B40000B4A9160012802D002280ED106E00849F4
:103B5000896841F00101064A916007E004498968DB
:103B600041F00301024A916000E000BF00BF7047CE
:103B70000000024038B50020009000BF2220FFF76F
:103B8000C1FF05460098401C00900098B0F5C06F3A
:103B900001D2002DF2D02220FFF7B4FF08B101249A
:103BA00000E00024204638BD29B1064AD26902430C
:103BB000044BDA6104E0034AD2698243014BDA61C3
:103BC000704700000000024010B50248006801F094
:103BD00023F810BDB000002070477047704770B5E3
:103BE00004460D4635B1012D16D0022D0BD0032D04
:103BF00024D11AE0A189A068FFF7C4FBA18820683E
:103C0000FFF7C0FB1AE0A189A068FFF7C9FBA188F4
:103C10002068FFF7B7FB11E0A189A068FFF7B2FBAE
:103C2000A1882068FFF7BCFB08E0A189A068FFF726
:103C3000B7FBA1882068FFF7B3FB00BF00BF70BDD2
:103C400070B504460D46208A20F00100401C2082F9
:103C5000208A20F004002082208A20F0800080301A
:103C60002082208A20F002002082208A20F0780022
:103C70002082207C00F5E060208200216182656165
:103C8000042240F6BE312046FFF716FA70BD000050
:103C900010B507480068401C0549086005480068E1
:103CA00020B10846006803490968884710BD000034
:103CB0008C0000209000002000214FF0E0221161D4
:103CC00003495161072111610249086070470000F2
:103CD0007F3801009000002030B5204CE46804F0EB
:103CE0000204022C01D11E4800E01D481B4CE46870
:103CF00004F0010404B140080146184CE46804F0E3
:103D00000404042C05D1154C6468C4F30324631C1B
:103D10005943124CE468C4F3012424B1012C06D0A9
:103D2000022C13D10DE00E4C0E4D2C6013E00B4C09
:103D3000E468C4F30314641CB1FBF4F2094C226080
:103D400009E04FF40044074D2C6004E049F640447C
:103D5000044D2C6000BF00BF30BD000000000240D9
:103D600000127A00B800002000B50D480D49C86166
:103D70000846C0680020C8600846406800204860C7
:103D800008468068002088600846006900200861B5
:103D90000846406900204861FFF79EFF00BD000013
:103DA00010000008000002400246104B586A104BF9
:103DB0009A4205D120F0FF00084340F0807012E0E5
:103DC0000C4B9A4206D120F47F4040EA012040F09B
:103DD000007008E0084B9A4205D120F47F0040EAC9
:103DE000014040F08060014B586270470000024083
:103DF00000000740008007400000084070B54D8873
:103E0000CE8835440E8935444E8935448E8905EB7C
:103E10008615CE8935440E8AAC198D880DB104F50E
:103E200000540A8800F1200545F822404D8ACE8AC8
:103E3000AB198D8A05B11B1D00F1600545F82230D4
:103E400070BD0021018041808180C180018141815C
:103E50008181C181018241828182C1827047426D2C
:103E60008A43426570470A46C16812B141F00101B8
:103E700001E021F00101C160704730B50C88046099
:103E80004C8844608C888460CC880D892C444D8992
:103E90002C448D892C44CD896319C3604C8A0D8ACA
:103EA00004EB05148D8A2C44CD8A6219026530BD5D
:103EB0000021018041808180C18001814181818117
:103EC000C181018241828182C18270470021C1602B
:103ED000016041608160016241628162C16201638F
:103EE00041638163C163016641668166C1660161A8
:103EF00041618161C161016741678167C167016497
:103F000041648164C164016541658165C165704733
:103F100030B50246546D956D2C4004EA01030BB98F
:103F2000002000E0012030BD10B51346826D0BB1BA
:103F30000A4300E08A43826510BD016070470000BB
:103F400010B50C48C07A00F0F00020B101210A48F9
:103F5000FFF745FE0CE00748807AC00920B1022136
:103F60000548FFF73CFE03E003210348FFF737FE57
:103F700010BD0000D80000204400002010B5FEF75E
:103F80008FFC10BD10B500F075F910BD10B5FEF72F
:103F900049FD10BD10B500F039F810BD10B500F0A6
:103FA00035F810BD70B58E08B2FBF6F3046BC56A28
:103FB00000E000BF866906F00806002EF9D106630E
:103FC0009E09466203F03F068662C562046370BDC7
:103FD00002460B4B986A0B4B9A4205D140F0807019
:103FE00020F0FF00084308E0074B9A4205D140F05B
:103FF000007020F47F4040EA0120014B9862704736
:1040000000000240000003400080034010B5102172
:104010000B4800F033F8012810D11021084800F0B7
:1040200015F8074800F01EF9C4B221460548FFF70D
:10403000C6FB05480078401C0349087010BD00000D
:10404000008003406005002088000020426C0A4385
:104050004264704721B1026B42F00102026304E046
:10406000026B4FF6FE731A40026370470246936973
:104070000B400BB1012000E0002070470246136C9A
:104080000B400BB1012000E0002070471AB1836B98
:104090000B43836302E0836B8B43836370470000B1
:1040A0002DE9F04F87B004460D4601A8FFF7F0FB5D
:1040B000019F2448866A2448844206D106F00701FD
:1040C00001208840B7FBF0F708E02048844205D182
:1040D000C6F3022101208840B7FBF0F7286880086A
:1040E000B7FBF0F94FEA991809F03F0AB8000AEB5C
:1040F0008811B0FBF1FB2868ABEB0000C001296818
:10410000B0FBF1F006900698022803D9002007B012
:10411000BDE8F08FC4F82480C4F828A0E66AA88817
:10412000E988084329890843698908430643E66208
:10413000266B4FF680708643A889064326630120CC
:10414000E5E700000000024000000340008003405B
:1041500070B50B4601461A46002907DA5407260EA9
:104160000B4C01F00F052D1F665503E05407250E7B
:10417000084C655400BF00BF00F01F0201219140B0
:104180004209920002F1E022C2F8001100BF70BDA6
:1041900018ED00E000E400E0F0B587B007460D46FA
:1041A00016461C4601212846FFF7FEFC04A8FFF72F
:1041B00005F903208DF8190001208DF81A0014B1BB
:1041C000012C23D111E001218805FFF7EDFC03202C
:1041D0008DF8180000208DF812000220ADF81000B4
:1041E00004A91F48FEF7EAFF11E001218805FFF747
:1041F000DBFC03208DF8180001208DF81200ADF8CB
:10420000100004A91648FEF7D9FF00E000BF00BF68
:1042100000966020ADF804000020ADF80600ADF86F
:104220000800ADF80A004FF44070ADF80C00694684
:104230003846FFF735FF00213846FFF7C9FE44B97D
:10424000012210213846FFF721FF01210720FFF747
:104250007FFF01213846FFF7FDFE07B0F0BD0000EB
:1042600000000B400146086880B27047CAB2026085
:104270007047000010B502210548FFF749FE0128EC
:1042800001D1FEF7C1FC02210148FFF7E8FD10BD96
:104290000080074000B587B00121C803FFF784FC08
:1042A0001748FFF713FE01A8FFF702FE002114488C
:1042B000FFF77AFD9F20ADF806004CF24F30ADF8C5
:1042C00008000020ADF80A00ADF80C00ADF81200AF
:1042D000ADF8040001A90A48FFF7CFFD0122022131
:1042E0000748FFF721FE0A210F20FEF753FF0F209A
:1042F000FEF745FF01210248FFF7B5FD07B000BDFD
:10430000008007402DE9F04107460D46164600247F
:1043100000BF0CE000BF08213846FFF7A7FE0128C8
:10432000F9D0295D3846FFF7A1FF601C84B2B44282
:10433000F0DBBDE8F081704700BFFEE77047490041
:1043400050EAC12018BF04204A0D18BF40F00100F8
:1043500040F2FF72B2EB515F08BF40F0020001284B
:1043600008BF0520704730380A2801D20120704765
:1043700000207047024650694B69984201DD0120D8
:10438000704750694B69984202DA4FF0FF30F7E707
:1043900010690B69984201DD0120F1E710690B6992
:1043A000984202DA4FF0FF30EAE7D068CB689842D3
:1043B00001DD0120E4E7D068CB68984202DA4FF0D3
:1043C000FF30DDE790688B68984201DD0120D7E778
:1043D00090688B68984202DA4FF0FF30D0E750685F
:1043E0004B68984201DD0120CAE750684B6898424B
:1043F00002DA4FF0FF30C3E710680B68984201DD26
:104400000120BDE710680B68984202DA4FF0FF30D8
:10441000B6E70020B4E770B504460D4624B92C2158
:104420002846FCF7E1F804E02C2221462846FCF758
:1044300087F870BD70B504460D4624B92C21284676
:10444000FCF7D2F804E02C2221462846FCF778F845
:1044500070BD2DE9F04704460D4600BF4FF4FA61E8
:10446000661A65F100070020091BA84102DA761ED2
:1044700067F100076422002330463946FBF7AEFEA1
:10448000804689464FF4C872002330463946FBF710
:10449000A5FEB8EB000869EB010910220021404697
:1044A000A0FB020A09FB02A208FB0121BDE8F0877C
:1044B00070B505460E46144631462846FFF75AFFAA
:1044C000401C08B9002070BD21462846FFF752FF66
:1044D000012801D10020F6E70120F4E70B4A126819
:1044E00002F0010282B1094A803A126802F0010228
:1044F00052B100BF4FF06042127802F00102002A70
:10450000F8D04FF06043187070470000800E00E054
:1045100070B504460D466422002320462946FBF769
:104520005DFE00214A404B401A430DD14FF4C87242
:10453000002320462946FBF751FE00214A404B400C
:104540001A4301D0012000E000200646304670BD2D
:104550000121C806FFF728FBFFF706FCFEF702F96A
:104560001848FFF7A9FB184800F050FBFEF75AF96E
:10457000FEF7CAFDFEF79AFC1448FEF7BDFB00F0FB
:1045800023FAFEF77DF91BE0FDF798FFFFF7D8FC53
:104590000E48807AC0F3001090B10C48807AC0F3C6
:1045A000C00068B10948807A20F01000074988727D
:1045B0000846807A20F008008872D1F812008047FF
:1045C000E2E70000614C0008912C0008D8000020B0
:1045D0002DE9F04796B08246DAF8140000F26C70CC
:1045E000C71706461F4A20495046FFF761FF88B1AA
:1045F0000BA95046FFF70FFF0BA8FCF73CF800256E
:10460000044651460BA8FFF715FF2046294616B071
:10461000BDE8F0872C2251466846FBF791FF3046F3
:10462000394600F023F8A0F26C7005900BA968469B
:10463000FFF7F1FE0BA8FCF71EF8002504465146D3
:104640000BA8FFF7F7FE109800F26C70C3178046B6
:1046500042463046394600F0D9F804194D4120460B
:104660002946D4E748500008745000082DE9F0416D
:1046700004460D4640F2B371611A75F1000008DB83
:1046800040F2F5710020091BA84102DB2046BDE87D
:10469000F08120462946FFF7DCFE061941EB0507AD
:1046A00040F2B371611A75F1000002DA083E67F159
:1046B000000720462946FFF72BFF10B10B3647F1C4
:1046C0000007621E65F100011046FFF721FF10B1DF
:1046D000113647F100071C22002330463946FBF70C
:1046E0007DFD16461F4600210846711A77EB000033
:1046F00002DA1C3647F1000700210846711A77EBF1
:10470000000000DB05E040F279121EA121A0FBF7BA
:10471000D7FE1C21711A77F1000000DA05E04FF492
:10472000BD7218A11FA0FBF7CBFE40F2B371611A56
:1047300075F1000003DA234850F8268010E040F2BB
:10474000F5710020091BA84103DA1F4830F91680D3
:1047500005E04FF4C0720BA11CA0FBF7B1FE00BF37
:1047600040F2F570804504DC40F2B370804500DB18
:1047700005E040F2851203A115A0FBF7A1FE40461B
:1047800085E7000054696D6536345C74696D653683
:10479000342E6300796561725F6379636C65203ED6
:1047A0003D203000796561725F6379636C65203C00
:1047B00020534F4C41525F4359434C455F4C454E4B
:1047C0004754480024510008EC5000083000000015
:1047D000736166655F79656172203C3D204D41588B
:1047E0005F534146455F594541522026262073615B
:1047F00066655F79656172203E3D204D494E5F538D
:104800004146455F59454152000000002DE9FC5FDB
:1048100004460D4616461F46301B77EB050001DAAD
:10482000012001E04FF0FF3083464FF00008C14601
:104830004FF416610020091BA84126DA4FF41661D7
:10484000611A65F100004FF4C8720023CDE9001031
:1048500008460199FBF7C2FC82464FF4C8710AFB77
:1048600001F0241A65EBE0754FEAEA71544A4FF003
:104870000203AAFB020C01FB02C10AFB0311024660
:1048800012EB080841EB09092AE04FF4C861611AEC
:1048900075F1000024DA4FF4C861611A65F1000077
:1048A0004FF4C8720023CDE9001008460199FBF7C8
:1048B00095FC82464FF4C8710AFB01F0041945EBE0
:1048C000E0754FEAEA713E4A4FF00203AAFB020C80
:1048D00001FB02C10AFB031210EB080842EB0909B5
:1048E0005BE040F26C71711A67F1000040F26C738A
:1048F000C91840F100004FF4C8720023CDE9001040
:1049000008460199FBF76AFC00214A404B401A43D4
:104910002CD040F26C71721A67F100000B46D2186D
:1049200040F10000CDE9002004220023DDE9000170
:10493000FBF754FC00214A404B401A4318D140F287
:104940006C71711A67F1000040F26C73C91840F184
:10495000000064220023CDE9001008460199FBF70E
:104960003DFC00214A404B401A4301D0012000E0A9
:104970000020144931F91000C0EB00108000C0EB9A
:104980000010800000EB4000C00010EB080849EB6D
:10499000E07916EB0B0647EBEB7784EA060085EA35
:1049A000070108439DD14FEAEB70A8FB0B1209FBEE
:1049B0000B2208FB002208461146BDE8FC9F0000C0
:1049C000805960F0E850000810B5FFF763FCFDF770
:1049D00091FF0123084A002140F24C4000F0C6F844
:1049E000064908600123064A002141F2883000F0A0
:1049F000BDF80449086010BD8D4A0008AC000020D5
:104A0000B54A0008B000002010B5044610480078F0
:104A1000012802D0022817D10FE002200C490870AB
:104A20000020FEF7BFF84B210A48006800F00EF99D
:104A30000848006800F0F0F807E0FDF721FF05489E
:104A4000006800F0D3F800E000BF00BF10BD000018
:104A500064000020B400002010B504460848807AA5
:104A6000C00920B120210748FEF79AFC03E020216D
:104A70000448FEF787FC0448006800F0B7F810BD52
:104A8000D800002000800A40A800002010B504468D
:104A900020210648FEF776FC0020054948720846AA
:104AA000807A20F08000887210BD000000800A40EB
:104AB000D800002010B5044620210B48FEF762FC08
:104AC00000200A4948720846807A20F080008872E7
:104AD0000846C07A20F040004030C87204A0FBF7BE
:104AE000A1FBFDF7B7FE10BD00800A40D8000020F2
:104AF0004750535F74696D656F75740D0A0000004F
:104B000010B5044607480068007820F08000803027
:104B100004490968087004A0FBF784FB204600F0F4
:104B200065F810BD3C00002043414E5F6572726F16
:104B3000720D0A0010B5044601230A4A002140F212
:104B40004C4000F013F8084908604FF08040FDF732
:104B50002BFC012803D001218807FDF700FCFDF79D
:104B60008BFB10BD014B0008140000202DE9F0471D
:104B700005460E46174698464FF0000900242BE0E4
:104B8000184800EB0410C06820BB164800EB041066
:104B90004560144800EB04104672124800EB041004
:104BA000C760B8F1000F0DD00F4800688047284457
:104BB0000C4901EB0411086001200A4901EB0411C2
:104BC000087204E00020074901EB0411087204F1A7
:104BD000010903E0601C84B20C2CD1DB00BF484605
:104BE000BDE8F0876C070020A400002050B100222F
:104BF000411E054B03EB0111CA60411E03EB01117D
:104C00000A720020704700006C070020014908600C
:104C100070470000A400002010B504468CB109487C
:104C200000688047611E084A02EB0111496801448F
:104C3000601E02EB001001600121601E02EB0010FB
:104C4000017210BDA40000206C07002020B1421E9C
:104C5000024B03EB02125160704700006C0700200A
:104C600070B5054600242AE0164800EB0410007ACF
:104C7000012820D1134800EB04100068A84219D87D
:104C8000104800EB0410407A48B10E4800EB0410C5
:104C9000406828440B4901EB0411086004E000203F
:104CA000084901EB04110872064800EB0410C168C2
:104CB000601C884700E000BF00BF601C84B20C2C61
:104CC000D2DB70BD6C07002010B500290AD008782F
:104CD000002807D005487844FCF7E2FB002801D003
:104CE000002010BD0248784410BD0000E20500001D
:104CF000DA0500000808A0F500114FEA31017047FD
:104D000043004FEAD30C4FEA3C0C43401FBF40071F
:104D10000CF1605113F0FE4F70471CF0006F03D18F
:104D200000200CF0004170470CF0004343EA507043
:104D300010B540EACC0000F025F900BF0000009259
:104D40004FEA0001FFF7D6BF4FF000414FF00000DF
:104D5000A1F500217047401058BFC0F140404910F4
:104D600058BFC1F140418142EFF30080704700001D
:104D70004FF47F0C1CEAD0121EBF1CEAD11392EA3A
:104D80000C0F93EA0C0F00F0858090EA010F48BFEA
:104D900042F4807240F4000C41F400002CF07F419A
:104DA00020F07F4000B58142A2EB03020FF2081C05
:104DB000ACEB504EC0F100009EF800E04FEA4E0E02
:104DC00000FB0EFC38BF49004FEA2C1C02F5FA022A
:104DD0000CFB0EF34FEACE1E4FEA112C4FEAC12115
:104DE0000EEB635E42EB22420EFB0CFC4FEA1C53BF
:104DF00000FB03114FEA112C4FEA01310EFB0CFCB2
:104E00004FEADC4C00FB0C11C14228BF09184CEBE7
:104E100003335DF804EB10EB410143EBC250B2F5F4
:104E20007C0F38BF704729D512F0F00F1CBF00F17E
:104E3000C04000F0004070470081828384858687EF
:104E400088898B8C8D8E8F919293959697999A9C49
:104E50009D9FA0A2A3A5A7A8AAACAEB0B2B3B5B7B8
:104E6000B9BCBEC0C2C5C7C9CCCED1D4D7D9DCDF8E
:104E7000E2E6E9ECF0F3F7FAFE0000004FEA400C3E
:104E80000CF1807CBCF17E4F28BF7047B0F1C04070
:104E900000F0BEB890EA010F0CEAD11348BF42F40B
:104EA0008072624538BF634507D213F47F0F16D076
:104EB00080EA010000F00040704710B500F062F891
:104EC000097EFC3E00F005B880EA010000F00040D9
:104ED000704780EA010000F0004000F099B812F439
:104EE0007F0F04BF0248704780EA010000F090B8CD
:104EF0000000C07FB0FA80F310FA03F2C3F19D0303
:104F00000AD0D90501EB1220530638BF704700F1D3
:104F1000010008BF20F001007047000050EA010CBA
:104F200000F113801CF5000F58BFBCF5000F01D431
:104F30008842704707D710F5000F58BF11F5000FD2
:104F400015D488427047894270471CF5000F04D57C
:104F5000BCF5000FF7D5814270474FF0807C1CEB09
:104F6000400F38BF1CEB410F01D28142704710B592
:104F700000F008F8922449004FF000504FF08051A3
:104F8000FFF7E9BE0EF1020E2EF0030E5EF8044BA1
:104F9000244204D44FEA4102B2F17F4F11D84FEAC4
:104FA0004003B3F17F4F0CD80ED14FEAD07CB2F161
:104FB0007F4F0CEB4C0C0CF1020C08BF4CEBD17C7E
:104FC00004E04FF0080C01E04FEAD17C0CEB4C03FD
:104FD00024FA03F404F00704B4F1040C06D20EEB37
:104FE000840CBDE810404CF0010C6047DFE80CF089
:104FF000070802024FF00040A0F5800010BD0846EF
:10500000420018BFD2F1807288BF00F0004010BD8E
:10501000FF2141EAD050C0057047FBF78FBD00006B
:1050200000800A401000000000800A4004000000D8
:1050300000800A400800000000800A4001000000D3
:1050400000800A4002000000070000000E0000007F
:105050001300000012000000000000008A000000A1
:10506000010000001100000000000000000000002E
:1050700000000000340000002D0000000C000000C3
:105080000D0000000B000000010000000500000002
:105090005A010000000000000000000000000000B5
:1050A0001F1C1F1E1F1E1F1F1E1F1E1F1F1D1F1E1A
:1050B0001F1E1F1F1E1F1E1F00001F003B005A0047
:1050C00078009700B500D400F300110130014E01C3
:1050D00000001F003C005B0079009800B600D5007E
:1050E000F400120131014F016D016E01E007E1078B
:1050F000E207E307E407E507E607E707E807E9074C
:10510000EA07EB07EC07ED07EE07EF07F007F107FB
:10511000F207F307F407F507DA07DB07DC07DD071B
:10512000DE07DF07CC070000CD070000CE07000038
:10513000B3070000B4070000B5070000B607000081
:10514000B7070000B8070000B9070000BA07000061
:10515000BB070000BC070000BD070000BE07000041
:10516000BF070000C0070000C1070000C207000021
:10517000C3070000C4070000C5070000C607000001
:10518000C7070000C8070000C9070000CA070000E1
:10519000CB0700000500010203050600010304051A
:1051A00006010203040600010204050600020304CE
:1051B000303132333435363738394142434445464D
:1051C0004030580030313233343536373839616247
:1051D0006364656640307800040000080000000049
:1051E0000000000200010000101F1D1F1E1F1E1FD7
:1051F0001F1E1F1E1F00000002400000000000A034
:105200000000000005400000000000C80000000091
:105210000C4000000000409C00000000194000000D
:105220000020BCBE0000000034400000BFC91B8E3F
:1052300000000004B5400000504BCFD06607E2CF1D
:10524000010000006C4100003E8251AADFEEA7344D
:1052500001000000D9420000DCB5A0E23A301F97FF
:10526000FFFFFFFFB4450000FD25A0C8E9A3C14F23
:10527000FFFFFFFFFF3F0000000000800000000074
:10528000FF3F000000000080000000003A7474003E
:105290003A7474003A747400D4520008000000207C
:1052A000C8000000FC0000089C530008C800002053
:1052B000C00E0000180100081C00000043000000A0
:1052C000F8FFFFFF0C0000000E0000000F000000C0
:1052D0002E00000000800E400400000000800E4000
:1052E00008000000000000000000000000000000B6
:1052F00000000000000000000000000000000000AE
:10530000000000000000000000000000000000009D
:10531000000000000000000000800E4004000000BB
:1053200000800E400800000000800E4004000000D5
:1053300000800E40080000000000000000800E40C9
:105340000400000000800E400800000000800E40B5
:105350000400000000800E40080000000000000073
:10536000000000000000000000800E40040000006B
:1053700000800E4008000000000000000000000057
:1053800000000000000000000000000000127A0091
:0C53900000000000000000000000000011
:04000005080000C12E
:00000001FF
