:020000040800F2
:10000000880E00205D010008C51700085112000885
:10001000BD17000827070008692800080000000035
:10002000000000000000000000000000ED200008BB
:10003000E70D000800000000151C0008D52100088D
:100040002B0700082D0700086728000800000000A3
:1000500000000000E50D0008C5240008CD240008BC
:10006000E92000080000000059120008591A000891
:100070006D28000800000000AD240008B524000829
:10008000BD2400082307000800000000570D0008E9
:10009000EB2000080000000000000000000000004D
:1000A000000000000000000000000000250700081C
:1000B000110E0008130E0008150E0008170E000898
:1000C00000F002F800F03AF80AA090E8000C824430
:1000D0008344AAF10107DA4501D100F02FF8AFF20D
:1000E000090EBAE80F0013F0010F18BFFB1A43F016
:1000F00001031847CC340000EC340000103A24BF50
:1001000078C878C1FAD8520724BF30C830C144BF7C
:1001100004680C60704700000023002400250026BE
:10012000103A28BF78C1FBD8520728BF30C148BF5A
:100130000B6070471FB51FBD10B510BD00F088FAE9
:100140001146FFF7F7FF02F067FC00F0A6FA03B4D0
:10015000FFF7F2FF03BC00F06DFA0000094880478A
:1001600009480047FEE7FEE7FEE7FEE7FEE7FEE799
:10017000FEE7FEE7FEE7FEE704480549054A064BB1
:1001800070470000AD220008C10000088808002068
:10019000880E0020880A0020880A002010B54C1024
:1001A00084EA530404D54042C1F1000138BF491E1E
:1001B0001B4204D55242C3F1000338BF5B1E00F05E
:1001C000A6F914F0804F04D04042C1F1000138BFBD
:1001D000491E14F0004F04D05242C3F1000338BF4F
:1001E0005B1E10BD0EB5054614460E4613A000F06A
:1001F00010FA284600F00DFA16A000F00AFA304670
:1002000000F007FA15A000F004FA00218DF80B1099
:100210000A210DF10A008DF80A1008E094FBF1F2B2
:1002200001FB124294FBF1F4303200F8012D002C56
:10023000F4DC00F0EEF900F0E1F900002A2A2A20AF
:10024000617373657274696F6E206661696C656451
:100250003A2000002C2066696C6520002C206C6917
:100260006E65200010B5203AC0F00B80B1E8185040
:10027000203AA0E81850B1E81850A0E81850BFF490
:10028000F5AF5FEA027C24BFB1E81850A0E818502F
:1002900044BF18C918C0BDE810405FEA827C24BF83
:1002A00051F8043B40F8043B08BF7047D20728BF11
:1002B00031F8023B48BF11F8012B28BF20F8023B60
:1002C00048BF00F8012B70474FF000020429C0F02E
:1002D000128010F0030C00F01B80CCF1040CBCF178
:1002E000020F18BF00F8012BA8BF20F8022BA1EBCA
:1002F0000C0100F00DB85FEAC17C24BF00F8012BAF
:1003000000F8012B48BF00F8012B70474FF00002A6
:1003100000B5134694469646203922BFA0E80C50FB
:10032000A0E80C50B1F12001BFF4F7AF090728BFD6
:10033000A0E80C5048BF0CC05DF804EB890028BF52
:1003400040F8042B08BF704748BF20F8022B11F07B
:10035000804F18BF00F8012B7047000010B50368EC
:100360001C1404EB21449BB289B2194494FBF2F3B0
:1003700002FB134394FBF2F401EB034393FBF2F112
:1003800002FB113193FBF2F301E05B1E11440029E3
:10039000FBDB016003EB044010BDF0B504464FF0F9
:1003A000FF3585B00068049060680290A0680390F3
:1003B000E068019020690090666906F18040B0F124
:1003C000004F7CD83C22002104A8FFF7C7FF3C2245
:1003D000014602A8FFF7C2FF1822014603A8FFF753
:1003E000BDFF411E40F2B55201A8FFF7B7FF0C2236
:1003F000074668460021FFF7B1FF414B00EB87003D
:10040000304400267B4411E0511A01910099491CA7
:100410000229009102D00C2908D105E0810705D0FE
:100420000199491C019101E0401C00960099019A34
:10043000595C9142E8DD0099012906D11C2A04D1BA
:10044000810702D00221CDE90016A0F146018B29D7
:100450003CD2DDE90061002202E09F5C521C39447D
:10046000B242FADB012E02DD820700D0491E40F2C3
:10047000B55340F26D16C21700EB927292105A43B8
:1004800000F0030303FB062283070A4400D1521E37
:10049000039E02EB4203049F06EBC303029EC3EBE1
:1004A000031306EB8303174E33441E149BB2C6EBB3
:1004B0000616C3EB0313B60007EB830300E005E069
:1004C00006EB134666F31F43360C02D0284605B0F0
:1004D000F0BD80C4029E40C4039E40C4019E761CB1
:1004E00044F80C6B009E44E902600720521C92FB0A
:1004F000F0F600FB162084E823001846E7E700002A
:10050000AC310000A039CEFD70477047704753EA08
:10051000020C00F069802DE9F04B4FF00006002B33
:100520001FBFB3FA83F503FA05F424FA05F65E401B
:1005300012BF1643B2FA82F502FA05F4C5F120059E
:100540001EBF22FA05FC44EA0C04203556EA044C8E
:100550004FEA144418BF641C4FF000084FF0000924
:10056000904271EB030C39D3002919BFB1FA81F71E
:1005700001FA07F6B0FA80F700FA07F6C7F120078C
:100580001EBF20FA07FC46EA0C062037B6FBF4FC37
:10059000A7EB0507103F07F01F0BCBF120060CFA65
:1005A0000BFB2CFA06F644BFB3460026202FA4BF4F
:1005B0005E464FF0000B5BEA060C08BF4FF0010BE4
:1005C00019EB0B09ABFB027C48EB0608C01B06FBD2
:1005D00002CC0BFB03CC71EB0C01C1E70B460246CE
:1005E00041464846BDE8F08B13B54FF000004FF090
:1005F0000001AFF30080BDE81C40704710B500203B
:1006000000F01EF8FFF798FDBDE81040012000F053
:1006100011B810B5044602E0641C00F004F820781C
:100620000028F9D110BD08B569468DF800000320F7
:10063000ABBE08BD01491820ABBEFEE72600020094
:1006400010B500F039F8BDE8104000F02FB8704741
:10065000754600F049F8AE4605006946534620F05D
:100660000700854618B020B5FFF786FDBDE820409D
:100670004FF000064FF000074FF000084FF0000B5E
:1006800021F00701AC46ACE8C009ACE8C009ACE811
:10069000C009ACE8C0098D46704710B50446AFF3F9
:1006A00000802046BDE81040FFF751BD002801D072
:1006B000FFF7C0BF7047000010B5002102A000F096
:1006C00017F8012010BD0000534947414252543AE7
:1006D0002041626E6F726D616C207465726D696E1F
:1006E0006174696F6E0000000048704724080020A4
:1006F00070B505460C460A2000E06D1CFFF793FF1D
:1007000035B128780028F8D102E0641CFFF78BFF90
:1007100014B120780028F8D1BDE870400A20FFF716
:1007200082BF7047704700BFFEE770477047000008
:100730001FB500208DF8050008208DF80600002068
:100740008DF804002348407B40F020008004009096
:100750002148006801782148007861F3C7001F49EB
:1007600008700846007820F00700401C08701C48FC
:1007700000680068C1F801001948006890F9080095
:10078000487117480068807A42090846817962F307
:100790008611817112480068807A82090F48817938
:1007A00062F3C7118171807920F007010B488171D4
:1007B0008021C171014603C9CDE902014FF4F071F6
:1007C0004FF0804000F0F7F86A460221480700F039
:1007D00092FA1FBDD0000020400000202000002021
:1007E0003800002002460B4B186AB2F1804F05D149
:1007F00040F0807020F0FF00084308E0064B9A426A
:1008000005D140F0007020F47F4040EA0120014B08
:100810001862704700000240008000402DE9F0415E
:1008200004460D4617461E46DDF8188004F5A06004
:1008300040F8356000EBC500C0F804803A46294610
:10084000204600F03AFA032104F1400040F8251058
:10085000BDE8F08100F1400252F8212042F001038E
:1008600000F1400242F82130704700001FB500201F
:100870008DF8050008208DF8060000208DF8040092
:100880002A48407B40F400708004009028480068AB
:1008900001782848007861F3C700264908700846A7
:1008A000007820F00700087023480068007800F006
:1008B000F00030B10846407820F080008030487069
:1008C00005E01C48407820F080001A4948701A481A
:1008D0000068007881091748407861F3861015494F
:1008E000487015480068007841091248407861F363
:1008F00045101049487010480068007801090D48FB
:10090000807861F3C7100B49887003C9CDE90201F3
:100910004FF4F0714FF0804000F04DF86A4603212B
:100920004FF0804000F0E7F91FBD0000D00000202C
:1009300040000020180000203C00002010B500F10D
:10094000400353F82130934300F1400444F8213030
:1009500010BD0A46016812B141F0010101E021F029
:100960000101016070470022026042608260026102
:10097000C261C0F8C020C0F8C820002105E00023F3
:1009800000F1400242F82130491C2029F7D370477A
:10099000024602F1400050F8210070470146086805
:1009A00000F0010008B9002070470120FCE7014673
:1009B0004868000E704742688A434260704770B5CD
:1009C00000220D780DB142F010024D780DB142F0C9
:1009D00008028D780DB142F00402CD780DB142F0DD
:1009E00002020260D1E901563544CE6835440E69F1
:1009F00035440E8BAC194D692C43846000230AE00A
:100A0000002600F5A06505EBC3056E6000F5A06546
:100A100045F833605B1C202BF2D38D7EC56170BD21
:100A20002DE9F04105460E46144605F5007101EB2F
:100A30000611081D00F03AF9074607F00F00A071F3
:100A40000020E07107F4807008B10120E0710020FF
:100A5000607107F4805008B101206071002020719E
:100A600005F1400101EB860000F020F9074607F090
:100A7000040008B10120207105F5007101EB06109A
:100A800000F014F9206005F5007101EB061101F189
:100A9000080000F00BF9A06005F5007101EB0611EC
:100AA00001F10C0000F002F9E060BDE8F081000007
:100AB00010B54FF08040FFF77AFF7F2804D900215E
:100AC0004FF08040FFF745FF00214FF08040FFF7D7
:100AD0005FFF00F0400000283CD0694A00214FF041
:100AE0008040FFF79DFF66488079082818D1644848
:100AF000C079A8B96248007A624909680978002279
:100B000042EAC10188420BD15F48006802F0BAFA9C
:100B10005E480068007820F080005C490968087031
:100B20005748807988B95648C07901280DD1FFF718
:100B30009DFE56480068007820F0800053490968FF
:100B400008705348006802F0B3FA402200211006F2
:100B5000FFF7F4FE01218807FFF71AFF00F04000BD
:100B6000D8B3474A01218807FFF75AFF44488079E4
:100B7000082818D14248C079A8B94148007A4149AB
:100B800009680978002242EAC10188420BD13E4837
:100B9000006802F077FA3D480068007820F0800095
:100BA0003A49096808703648807988B93448C0796C
:100BB00001280DD1FFF75AFE34480068007820F074
:100BC00080003249096808703148006802F070FA04
:100BD000402201218807FFF7B1FE04210807FFF733
:100BE000D7FE00F04000002848D0254A042108071D
:100BF000FFF716FF2248007A224909680978002287
:100C000042EAC101884210D122491D4AD2E90202BA
:100C100005C10839B1F8010002F070FB04461E4915
:100C200002F0AAFA1D49096848601548007A15497A
:100C300009680978072202EBC101884219D11848D6
:100C40000F4AD2E9021206C008384078C00980B1C4
:100C500000BFBFF34F8F1348006800F4E0601249F3
:100C60000843001D0F490860BFF34F8F00BF00BF4E
:100C7000FEE7402204210807FFF760FE10BD0000D8
:100C8000BC00002040000020140000203C00002098
:100C900010000020280000200000C842380000207A
:100CA000300000200CED00E00000FA05014672B6AD
:100CB000086800B9086862B6704710B5002302B131
:100CC000042343F0030300F1400444F8213010BD35
:100CD0000021017041708170C17041604FF40021AA
:100CE00081604FF0A071C160002101614161018309
:100CF000FF218176704730B5034654791CB9947949
:100D000004F5206002E0947904F5D05003F50074F6
:100D100004EB0114606003F5007404EB0114156822
:100D2000256003F5007404EB01149568A56003F5D4
:100D3000007404EB0114D568E560002014790CB14F
:100D400040F0100040F0200040F0010003F14004AA
:100D500044F8210030BD704770B50025012001F036
:100D600073F907E001F08EF90446012C00D103E08D
:100D7000681CC5B20A2DF5DB00BF012C03D0012190
:100D8000104801F0B4F90921022000F0B3FF01205E
:100D900000F0AAFF00BF00F0CDFF0128FBD1012128
:100DA000082001F089F9182000F02CF8002000F04C
:100DB000E1FF012000F0D8FF4FF4807000F0E6FF63
:100DC00070BD00004400002010B50123034A00213B
:100DD000FA2002F017F90249086010BDA52E00089C
:100DE000B40000207047704700B5014600F02AFAB1
:100DF000024600E000BF00F025FA801A8842F9D3CD
:100E000000BD0000014908607047000000800140FB
:100E1000704770477047704710B50A4800F04EFAA7
:100E20000121084801F063F900F018FE4FF48071C9
:100E3000054800F0E7FD00F077F9002000F064F9C4
:100E400010BD00006800002000000B4010B501201C
:100E500000F05AF9012002490870FFF7B5FF10BDF4
:100E60006400002010B5064800F084FB3220FFF734
:100E7000BBFF4FF4FA61024801F06AF910BD0000AF
:100E80000003002010B502210C4801F0D7FA012818
:100E900013D10221094801F078FA4FF48071084813
:100EA00000F0B0FD0021054801F073FA0548807A92
:100EB00020F0100010300349887210BD0000074078
:100EC00000000B40D000002000B58FB00121464843
:100ED00001F0F2F8454801F08FFA06A801F07EFA19
:100EE0000020ADF82000ADF82600ADF81A004FF64E
:100EF000FF70ADF81C000020ADF81800ADF824001C
:100F000006A93A4801F04FFA684601F030FA4FF46A
:100F10000040ADF802000020ADF80400ADF80E006E
:100F2000ADF814000120ADF816000220ADF8100055
:100F30000320ADF8000069462C4801F0F5F90CA833
:100F400000F07CFD8020ADF8300003208DF83800E3
:100F500000208DF8320001208DF83A0003208DF832
:100F600039000CA9224800F061FC00211F4801F063
:100F7000B1F9012211021D4801F06CFA092110207B
:100F800000F02CFC102000F01EFC0121174801F09D
:100F900000FA184801F030FA06A801F01FFA0720FD
:100FA000ADF81A003B20ADF81C000020ADF81E0083
:100FB000ADF82000ADF82600ADF8180006A90D48E0
:100FC00001F0F1F900210B4801F084F9012202211E
:100FD000084801F03FFA08210E2000F0FFFB0E2028
:100FE00000F0F1FB0FB000BD0040410000000840E0
:100FF00000000B400000074010B54FF4807112480C
:1010000001F01CFA01281ED101020F4801F0BDF9C0
:101010000E48807A0121B1EBD01F10D100210C487D
:1010200001F021FA01210A4801F0B3F90123094A2C
:10103000002140F2523001F0E5FF074908600748FF
:10104000006802F01FF810BD00000840D00000202A
:1010500000000740F52E0008A8000020AC0000208A
:10106000B0B58CB00446A76E3946244802F05AF950
:1010700033D223484168384602F054F92DD2206D0E
:101080000490E06C0590A06CA0F26C700690606D0E
:101090000390A06D0290E06D3C2802D13B200190AE
:1010A00001E0E06D019001A801F0ECFC0546154956
:1010B000681A134908600846407A00F0040020B915
:1010C0000846407A401C487216E00D48807A20F0AD
:1010D000800080300A4988720EE00948407A002872
:1010E00004DD0748407A401E054948720448807A6A
:1010F00020F08000024988720CB0B0BDCDCCCC3D50
:10110000D000002080436D3810B50446012C04D176
:101110000221044800F076FC03E00221014800F0BF
:101120007FFC10BD00800B400EB50121C80500F00A
:10113000C3FF684600F082FC0220ADF800000120E9
:101140008DF8020000208DF8080001208DF80A00BB
:1011500003208DF8090001208DF80400694602483B
:1011600000F064FB0EBD000000800B4010B54FF096
:10117000FF34184800F07EFD002828DD164800F0F6
:101180008DFC041E23DD1548C07A20F04000134971
:10119000C87200F0A1FF012C19D10F48FFF760FFC2
:1011A0000E48807A0121B1EBD01F10D10B48807A14
:1011B000C0F3001058B10948807A20F008000830C8
:1011C000064988720846807A20F01000887220460E
:1011D00010BD000058050020E8000020D0000020CD
:1011E00070B58AB0002400250026282214496846DC
:1011F000FFF738F805263146684600F00CFD4FF43D
:10120000FA70FFF7F1FD00BF10E06A4602EBC4027E
:1012100091885DF8340000F0EDFB08B9012000E092
:101220000020A040284345B2601CC4B2B442ECDBAD
:1012300015B128460AB070BD4FF0FF30FAE7000044
:101240002434000801480068704700008C0000202A
:1012500001E000F0D7FAFCE7704700004CF6CC4004
:101260000149086070470000008006400146044ABA
:10127000D2680A400AB1012000E000207047000057
:10128000008006404AF6AA20014908607047000025
:101290000080064001494860704700000080064019
:1012A00001498860704700000080064045F25550B3
:1012B00001490860704700000080064010B50446F0
:1012C00004F1080000F004F8204600F001F810BD19
:1012D0003EB504462168C1F3C432012101FA02F08F
:1012E00000F0EAFE684600F0A9FBA088ADF8000017
:1012F00001208DF8020000208DF8080001208DF8F3
:101300000A008DF809006946206800F08FFA3EBD9A
:1013100010B50121480300F0CFFEFFF7C7FF0420FE
:10132000FFF7B8FF00BF0120FFF7A0FF0128FAD1A7
:1013300040F6C410FFF7B4FFFFF790FFFFF7A2FFDE
:1013400010BD000010B58CB004466148046004F183
:101350000B0060490860401C5F4908605F480968ED
:10136000C1F8060008205C49096808705C485A49C1
:101370000968C1F802000121480500F09DFE09A896
:1013800000F05CFB02208DF82C0001208DF82E006F
:101390008DF82D008020ADF8240000208DF8260067
:1013A00009A9504800F042FA4020ADF8240001207D
:1013B0008DF8260009A94B4800F038FA01210846AB
:1013C00000F07AFE00214FF08040FFF70BFA4FF05B
:1013D0008040FFF7C8FA02A8FFF77AFC01208DF8D9
:1013E000080000208DF80A008DF80B003A490968C2
:1013F000D1F8020080473849096848703A4890F9A6
:101400000D00401C38B9002033490968487001209C
:101410008DF8090002E000208DF809004FF48030BB
:1014200003904FF4401004904FF0A07005904FF0DF
:101430000070069080000790FF208DF82200272082
:10144000ADF8200002A94FF08040FFF7B8FA22481B
:101450000068407840F400708004244B002211465C
:1014600000904FF08040FFF7D9F91B4800684078A2
:1014700040F4007080041D4B002201210090880779
:10148000FFF7CCF902214807FFF7E4F903214FF0F9
:101490008040FFF7DFF910480068407840F4807022
:1014A0008004124B0022042100900807FFF7B6F9D0
:1014B00001218807FFF74DFA01230D4A194641F231
:1014C000883001F09FFD0B4908600CB010BD000092
:1014D000380000203C0000204000002031070008B8
:1014E000E111000800800A40D00000200000FC1F2D
:1014F000CD2F0008100000200120144981F81002AF
:101500001348807A20F00800114988720846807AD2
:1015100020F0100088720020086008720846807A67
:1015200020F0200088720846807A20F040008872FF
:10153000002048720846807A20F0800088724FF0C0
:10154000814048600020C87270470000E800002019
:10155000D000002010B502460B460024002104E014
:1015600032F81100204484B2491C9942F8D36042F9
:1015700080B210BD10B50446208A20F00100401C46
:101580002082208A20F004002082208A20F080001F
:1015900080302082208A20F002002082208A20F0E1
:1015A00078002082207C00F500702082002161827A
:1015B000A06920F0FF01491CA161A069C0F31501D9
:1015C00001F18071A161E06920F0FF01491CE16136
:1015D000E069C0F3150101F18071E161606A20F0FA
:1015E0000401091D6162606A20F008016162606A9D
:1015F00020F040016162606A20F080016162606AEF
:1016000020F4807101F580716162606A20F40071DC
:1016100001F500716162606A20F4806101F580610A
:101620006162606A20F400616162606A20F4805146
:1016300001F580516162606A20F4005101F50051AA
:101640006162606A20F480316162606A20F4003176
:1016500001F500316162606A20F4802101F580218A
:101660006162606A20F400216162606A20F4801186
:101670006162606A20F400116162606A20F080712A
:1016800001F180716162606A20F0007101F1007106
:101690006162606A20F0806101F180616162606A6C
:1016A00020F0006101F100616162A06A20F0010197
:1016B000491CA162A06A20F00201A162A06A20F088
:1016C0000401A162A06A20F00801A162A06A20F4CE
:1016D000807101F58071A162A06A20F40071A1629D
:1016E000A06A20F48061A162A06A20F40061A16276
:1016F0000E2240F6BE31204600F001F810BD70B554
:1017000004460E46154648F2FF1020806680A580EC
:101710000020E08004212046FFF71CFF208129469D
:1017200004F11000FFF716FF04F1100121F8150075
:101730000A21204600F036F8681C4FF6FF7202EAD4
:10174000400104F1100000F02DF870BD10B5012328
:101750004FF4E13240210E4800F0B6FF0D4A4FF43D
:10176000E1310B4800F0B6FE00234FF4E132802156
:10177000094800F0A9FF074A4FF4E131064800F09C
:10178000A9FE4FF400720549054800F085FA10BD26
:101790000000034000B4C40400800340640500203E
:1017A0005805002070B504460D462A4621460248D9
:1017B00001F040F870BD00000000034001E000F0BF
:1017C00021F8FCE7704700F01F0201219140420917
:1017D000920002F1E022C2F80011704710B5002813
:1017E00007DA4A07140E054A00F00F031B1FD454F2
:1017F00003E04A07130E024A135410BD18ED00E02F
:1018000000E400E0BFF34F8F0648006800F4E0609A
:1018100005490843001D03490860BFF34F8F00BF0F
:10182000FEE700000CED00E00000FA052DE9FE4F98
:101830004768D0F808C0D0F80C80D0F81090D0F8E5
:1018400014A0CDF808A0D0F818A0CDF804A0D0F8C6
:101850001CA0CDF800A00022012303254FF00116A3
:101860000C885FE004F0010ABAF1000F55D027EAB6
:10187000030A91F802B00BFA02FB4AEA0B0791F84F
:1018800008A04FEA420B0AFA0BFA2CEA050B4AEAC7
:101890000B0C28EA030A91F80AB00BFA02FB4AEA99
:1018A0000B0829EA060A91F803B002F1100E0BFAB0
:1018B0000EFB4AEA0B0A91F804B00BFA02FB4AEA63
:1018C0000B09DDF808A02AEA060A91F805B00BFA20
:1018D0000EFB4AEA0B0A91F806B00BFA02FB4AEA41
:1018E0000B0ACDF808A091F809A04FEA420B0AFABA
:1018F0000BFADDF804B02BEA050B4AEA0B0ACDF827
:1019000004A0DDF800A02AEA030A91F807B00BFA58
:1019100002FB4AEA0B0ACDF800A05B00AD0076009E
:10192000521C6408002C9DD1DFF8C4A0504502D1A0
:101930004FF01F0A01E04FF0000A27EA0A0AC0F838
:1019400004A0DFF8ACA0504502D14FF01F0A01E01F
:101950004FF0000A2CEA0A0AC0F808A0DFF890A0AD
:10196000504502D14FF01F0A01E04FF0000A28EA6B
:101970000A0AC0F80CA0DFF878A0504502D14FF059
:101980001F0A01E04FF0000A29EA0A0AC0F810A075
:10199000DFF85CA0504502D14FF01F0B01E04FF083
:1019A000000BDDF808A02AEA0B0AC0F814A0DFF843
:1019B00040A0504502D14FF01F0B01E04FF0000B4B
:1019C000DDF804A02AEA0B0AC0F818A0DFF820A06E
:1019D000504502D14FF01F0B01E04FF0000BDDF836
:1019E00000A02AEA0B0AC0F81CA0BDE8FE8F000088
:1019F00000000C40024613680B400BB1012000E0D0
:101A0000002070470268054B984201D11F2300E077
:101A100000230B439A4302607047000000000C4013
:101A20000268054B984201D11F2300E000239A432E
:101A30000A4302607047000000000C404FF6FF713F
:101A4000018000218170C170017141718171C1718A
:101A50000172417281727047704700000EB501211A
:101A6000880500F029FB6846FFF7E8FF4FF4807017
:101A7000ADF8000001208DF8020000208DF808006C
:101A800001208DF80A0003208DF8090069460248FC
:101A9000FFF7CCFE0EBD000000000B4070B5044601
:101AA0004FF0FF3648F2FF102080A6E0574800F0C4
:101AB00002F9054694F810020D287CD2DFE800F008
:101AC0009B070E191E232830353A3F4463002078C7
:101AD000A84202D1022084F810028DE06078A8426A
:101AE00003D1032084F8100202E0012084F81002E0
:101AF00082E0042084F81002A5707DE0052084F8BF
:101B00001002E57078E0062084F81002257173E079
:101B1000072084F81002657100203D4908806BE0C1
:101B2000A571082084F8100266E0E571092084F8A8
:101B3000100261E025720A2084F810025CE06572F0
:101B40000B2084F8100257E0A08840003049098833
:101B5000884211DD04F110002D49098845542C48B4
:101B60000088401C2A49088008460088B0F5007F9C
:101B700008DB0020088005E00020254908800C20B3
:101B800084F8100238E0012084F810020421204675
:101B9000FFF7E0FC2189884229D1608840F6BA32FB
:101BA000811A904219D00BDCA0F69800D8B1B0F59C
:101BB000487F0CD000E01EE0A0F22130A8B908E078
:101BC00001290CD004290CD009290ED103E00126EB
:101BD0000CE002260AE0032608E0042606E00526BB
:101BE00004E0062602E0072600E000BF00BF074829
:101BF00000F036F800E000BF00BF044800F03AF8FB
:101C000000283FF753AF304670BD00005805002054
:101C1000660000207047FEB505460E4601214805C6
:101C200000F04AFA6846FFF709FF00208DF802002D
:101C30008DF8080001208DF80A008DF809000024B5
:101C40000BE005EBC4008088ADF8000055F83400C7
:101C50006946FFF7EBFD601CC4B2B442F1DBFEBD88
:101C600010B504460020A080E08021892068FEF79E
:101C70002BFB10BD014600208A88CB889A4206DAE9
:101C80000A898B881A44CB88D21A90B203E08A88DA
:101C9000CB88D21A90B2704770B504460D461646EE
:101CA000268125602046FFF7DBFF206808B1012070
:101CB00070BD0020FCE70146CB885A1CCA800A6828
:101CC000D05CCA880B899A4201DB0022CA80704727
:101CD00083885A1C82800268D154828803899A4280
:101CE00001DB0022828070470149086070470000D4
:101CF0008800404210B502460C4BD86820F0030023
:101D00001043D860586820F4706040EA01205860A1
:101D1000074B1B6843B10123054C241D236000239E
:101D2000034C883CC4F88C3010BD00000000024019
:101D30008800404238B50020009000BF212000F00C
:101D400069F905460098401C00900098B0F5C06FF6
:101D500001D2002DF2D0212000F05CF908B101245D
:101D600000E00024204638BD0149086070470000AB
:101D7000880140420146044AD06820F0F00040EA61
:101D80000110D06070470000000002400146034A85
:101D9000D06820F440700843D060704700000240D3
:101DA0002DE9FC4F0146DFF864B2DBF80CB00BF014
:101DB000020BBBF1000F01D0954B00E0944BDFF814
:101DC0004CB2DBF80CB00BF0010BBBF1000F00D0F4
:101DD0005B081C46DFF834B2DBF80CB00BF0040BE8
:101DE000BBF1000F0DD0DFF824B2DBF804B0CBF369
:101DF000032B0BF1010BCDF800B0DDF800B004FBB4
:101E00000BF4DFF808B2DBF80CB0CBF3012BBBF11D
:101E1000000F06D0BBF1010F08D0BBF1020F28D193
:101E200022E0DFF8ECB1C1F800B027E0DFF8DCB168
:101E3000DBF80CB04FF0080E0EEA1B1BBBF1000FD5
:101E400001D1A0460DE0DFF8C4B1DBF80CB0CBF354
:101E5000021B0BF1010B4FF0010E0EFA0BFEB4FB4F
:101E6000FEF8C1F8008009E04FF4004BC1F800B063
:101E700004E049F6404BC1F800B000BF00BFDFF8F6
:101E80008CB1DBF810B00BF0020BBBF1000F01D0EE
:101E90005F4D00E05E4DDFF874B1DBF810B00BF081
:101EA000010BBBF1000F00D06D082F46DFF85CB1CD
:101EB000DBF810B00BF0040BBBF1000F0DD0DFF816
:101EC0004CB1DBF804B0CBF3031B0BF1010BCDF8E5
:101ED00000B0DDF800B007FB0BF7B946DFF82CB116
:101EE000DBF810B00BF0100BBBF1000F01D04FEA84
:101EF0005909C1F80490DFF814B1DBF818B04FEAC3
:101F00001B1000F0080BBBF1000F02D1DFF800C17D
:101F10000BE000F0070B0BF1010B4FF0010E0EFA76
:101F20000BF0DFF8ECB0BBFBF0FCC1F80CC0DFF845
:101F3000DCB0DBF8180000F0080BBBF1000F04D197
:101F4000DFF8CCB0CDF804B00DE000F0070B0BF1DA
:101F5000010B4FF0010E0EFA0BF0DFF8B4B0BBFB33
:101F6000F0FBCDF804B0DDF804B0C1F810B0DFF834
:101F70009CB0DBF814B00BF0030BBBF1000F06D0E4
:101F8000BBF1010F05D0BBF1020F06D103E01E46E5
:101F900005E02E4603E0264601E03E4600BF00BFB6
:101FA000DFF868B0DBF814B0CBF3011BBBF1000F16
:101FB00006D0BBF1010F06D0BBF1020F08D105E03E
:101FC0004FF4004206E049F6404203E0324601E0A9
:101FD000624600BF00BFDFF834B0DBF814B04FEA50
:101FE0001B2000F0080BBBF1000F01D1924609E065
:101FF00000F0070B0BF1010B4FF0010E0EFA0BF086
:10200000B2FBF0FAC1F808A0BDE8FC8F0000024066
:1020100000127A0010B5014601F0E003202B02D136
:10202000074B1A6801E0074BDA6B01F01F0401232C
:10203000A34013400BB1012000E0002010BD0000C0
:102040000000024000800D400D49896821F0030125
:102050000B4A9160012802D002280ED106E00849FF
:10206000896841F00101064A916007E004498968E6
:1020700041F00301024A916000E000BF00BF7047D9
:102080000000024038B50020009000BF2220FFF77A
:10209000C1FF05460098401C00900098B0F5C06F45
:1020A00001D2002DF2D02220FFF7B4FF08B10124A5
:1020B00000E00024204638BD29B1064AD269024317
:1020C000044BDA6104E0034AD2698243014BDA61CE
:1020D000704700000000024010B50248006800F0A0
:1020E000E7FF10BDB000002070477047704770B523
:1020F00004460D4635B1012D16D0022D0BD0032D0F
:1021000024D11AE0A189A068FFF77CFCA18820688F
:10211000FFF778FC1AE0A189A068FFF781FCA1888D
:102120002068FFF76FFC11E0A189A068FFF76AFC47
:10213000A1882068FFF774FC08E0A189A068FFF778
:102140006FFCA1882068FFF76BFC00BF00BF70BD6B
:1021500070B504460D46208A20F00100401C208204
:10216000208A20F004002082208A20F08000803025
:102170002082208A20F002002082208A20F078002D
:102180002082207C00F5E060208200216182656170
:10219000042240F6BE312046FFF7B1FA70BD0000C0
:1021A0000B484FF0E02148610520086100BF4FF067
:1021B000E020006900F480300028F8D04FF0E020E3
:1021C000006920F001004FF0E02108617047000035
:1021D000001BB70010B507480068401C054908609F
:1021E0000548006820B10846006803490968884727
:1021F00010BD00008C0000209000002000214FF056
:10220000E02211610349516107211161024908600F
:10221000704700007F3801009000002030B5204C4E
:10222000E46804F00204022C01D11E4800E01D48BD
:102230001B4CE46804F0010404B140080146184C4A
:10224000E46804F00404042C05D1154C6468C4F35C
:102250000324631C5943124CE468C4F3012424B1E1
:10226000012C06D0022C13D10DE00E4C0E4D2C602B
:1022700013E00B4CE468C4F30314641CB1FBF4F2E8
:10228000094C226009E04FF40044074D2C6004E043
:1022900049F64044044D2C6000BF00BF30BD000033
:1022A0000000024000127A00B800002000B51020A3
:1022B0000749C8610020C8604860886008614861BB
:1022C0008861086248628862C862FFF7A7FF00BDA4
:1022D000000002400246104B586A104B9A4205D14A
:1022E00020F0FF00084340F0807012E00C4B9A424F
:1022F00006D120F47F4040EA012040F0007008E061
:10230000084B9A4205D120F47F0040EA014040F09A
:102310008060014B58627047000002400000074097
:10232000008007400000084070B54D88CE883544D5
:102330000E8935444E8935448E8905EB8615CE8944
:1023400035440E8AAC198D880DB104F500540A8805
:1023500000F1200545F822404D8ACE8AAB198D8ABE
:1023600005B11B1D00F1600545F8223070BD00214C
:10237000018041808180C180018141818181C18151
:10238000018241828182C1827047426D8A434265E7
:1023900070470A46C16812B141F0010101E021F025
:1023A0000101C160704730B50C8804604C884460FE
:1023B0008C888460CC880D892C444D892C448D896F
:1023C0002C44CD896319C3604C8A0D8A04EB051433
:1023D0008D8A2C44CD8A6219026530BD00210180AE
:1023E00041808180C180018141818181C1810182DF
:1023F00041828182C18270470021C16001604160D9
:102400008160016241628162C162016341638163F3
:10241000C163016641668166C16601614161816196
:10242000C161016741678167C1670164416481647B
:10243000C164016541658165C165704730B502467B
:10244000546D956D2C4004EA01030BB9002000E0A7
:10245000012030BD10B51346826D0BB10A4300E078
:102460008A43826510BD01607047000010B50D48B9
:10247000C07A00F0F00020B101210B48FFF737FED1
:102480000EE00848807A0121B1EBD01F04D102216F
:102490000548FFF72CFE03E003210348FFF727FE62
:1024A00010BD0000D00000204400002010B5FEF751
:1024B000E9FC10BD10B500F075F910BD10B5FEF7C0
:1024C0009BFD10BD10B500F039F810BD10B500F03F
:1024D00035F810BD70B58E08B2FBF6F3046BC56A13
:1024E00000E000BF866906F00806002EF9D10663F9
:1024F0009E09466203F03F068662C562046370BDB2
:1025000002460B4B986A0B4B9A4205D140F0807003
:1025100020F0FF00084308E0074B9A4205D140F045
:10252000007020F47F4040EA0120014B9862704720
:1025300000000240000003400080034010B510215D
:102540000B4800F033F8012810D11021084800F0A2
:1025500015F8074800F01EF9C4B221460548FFF7F8
:10256000B7FB05480078401C0349087010BD000007
:10257000008003405805002088000020426C0A4378
:102580004264704721B1026B42F00102026304E031
:10259000026B4FF6FE731A4002637047024693695E
:1025A0000B400BB1012000E0002070470246136C85
:1025B0000B400BB1012000E0002070471AB1836B83
:1025C0000B43836302E0836B8B438363704700009C
:1025D0002DE9F04F87B004460D4601A8FFF7E0FB58
:1025E000019F2448866A2448844206D106F00701E8
:1025F00001208840B7FBF0F708E02048844205D16D
:10260000C6F3022101208840B7FBF0F72868800854
:10261000B7FBF0F94FEA991809F03F0AB8000AEB46
:102620008811B0FBF1FB2868ABEB0000C001296802
:10263000B0FBF1F006900698022803D9002007B0FD
:10264000BDE8F08FC4F82480C4F828A0E66AA88802
:10265000E988084329890843698908430643E662F3
:10266000266B4FF680708643A889064326630120B7
:10267000E5E7000000000240000003400080034046
:1026800070B50B4601461A46002907DA5407260E94
:102690000B4C01F00F052D1F665503E05407250E66
:1026A000084C655400BF00BF00F01F02012191409B
:1026B0004209920002F1E022C2F8001100BF70BD91
:1026C00018ED00E000E400E0F0B587B007460D46E5
:1026D00016461C4601212846FFF7EEFC04A8FFF72A
:1026E000ADF903208DF8190001208DF81A0014B1FE
:1026F000012C23D111E001218805FFF7DDFC032027
:102700008DF8180000208DF812000220ADF810009E
:1027100004A91F48FFF78AF811E001218805FFF797
:10272000CBFC03208DF8180001208DF81200ADF8C5
:10273000100004A91648FFF779F800E000BF00BFB9
:1027400000966020ADF804000020ADF80600ADF85A
:102750000800ADF80A004FF44070ADF80C0069466F
:102760003846FFF735FF00213846FFF7C9FE44B968
:10277000012210213846FFF721FF01210720FFF732
:102780007FFF01213846FFF7FDFE07B0F0BD0000D6
:1027900000000B400146086880B27047CAB2026070
:1027A0007047000010B502210548FFF747FE0128D9
:1027B00001D1FEF7DBFC02210148FFF7E6FD10BD69
:1027C0000080074000B587B00121C803FFF774FC03
:1027D0001748FFF711FE01A8FFF700FE002114487B
:1027E000FFF778FD9F20ADF806004CF24F30ADF8B2
:1027F00008000020ADF80A00ADF80C00ADF812009A
:10280000ADF8040001A90A48FFF7CDFD012202211D
:102810000748FFF71FFE0A210F20FEF7DFFF0F20FA
:10282000FEF7D1FF01210248FFF7B3FD07B000BD5D
:10283000008007402DE9F04107460D46164600246A
:1028400000BF0CE000BF08213846FFF7A7FE0128B3
:10285000F9D0295D3846FFF7A1FF601C84B2B4426D
:10286000F0DBBDE8F081704700BFFEE7704702462D
:1028700050694B69984201DD0120704750694B69EE
:10288000984202DA4FF0FF30F7E710690B6998427F
:1028900001DD0120F1E710690B69984202DA4FF07F
:1028A000FF30EAE7D068CB68984201DD0120E4E719
:1028B000D068CB68984202DA4FF0FF30DDE79068CD
:1028C0008B68984201DD0120D7E790688B689842B9
:1028D00002DA4FF0FF30D0E750684B68984201DDD4
:1028E0000120CAE750684B68984202DA4FF0FF3087
:1028F000C3E710680B68984201DD0120BDE710684E
:102900000B68984202DA4FF0FF30B6E70020B4E7D8
:1029100070B504460D4624B92C212846FDF7F6FC77
:1029200004E02C2221462846FDF79CFC70BD70B5C2
:1029300004460D4624B92C212846FDF7E7FC04E0A7
:102940002C2221462846FDF78DFC70BD2DE9F0476D
:1029500004460D4600BF4FF4FA61661A65F10007A0
:102960000020091BA84102DA761E67F100076422E5
:10297000002330463946FDF711FC804689464FF466
:10298000C872002330463946FDF708FCB8EB000852
:1029900069EB0109102200214046A0FB020A09FB55
:1029A00002A208FB0121BDE8F08770B505460E467E
:1029B000144631462846FFF75AFF401C08B900204C
:1029C00070BD21462846FFF752FF012801D10020A3
:1029D000F6E70120F4E770B504460D4664220023B3
:1029E00020462946FDF7DAFB00214A404B401A43B6
:1029F0000DD14FF4C872002320462946FDF7CEFBC7
:102A000000214A404B401A4301D0012000E0002041
:102A10000646304670BD0000FEF7FEF9FFF7C0FB2A
:102A2000FEF79AF9FEF768FD1348FFF7E7FB134836
:102A300000F038FBFEF78AFE1148FEF783FC00F039
:102A40001DFAFEF70FFAFEF763FC14E0FEF730F80C
:102A5000FFF70CFD0A48807AC0F3C00048B108496E
:102A6000D1F8120080470648807A20F00800044917
:102A70008872FEF707FCE9E7F93000084512000804
:102A8000D00000202DE9F04796B08246DAF8140015
:102A900000F26C70C71706461F4A20495046FFF7E0
:102AA00084FF88B10BA95046FFF732FF0BA8FDF752
:102AB00074FC0025044651460BA8FFF738FF20465A
:102AC000294616B0BDE8F0872C2251466846FDF72E
:102AD000C9FB3046394600F023F8A0F26C7005902F
:102AE0000BA96846FFF714FF0BA8FDF756FC00255D
:102AF000044651460BA8FFF71AFF109800F26C70BD
:102B0000C317804642463046394600F0D9F80419CA
:102B10004D4120462946D4E74C340008783400085B
:102B20002DE9F04104460D4640F2B371611A75F18A
:102B3000000008DB40F2F5710020091BA84102DB10
:102B40002046BDE8F08120462946FFF7FFFE061922
:102B500041EB050740F2B371611A75F1000002DA2A
:102B6000083E67F1000720462946FFF734FF10B101
:102B70000B3647F10007621E65F100011046FFF7B2
:102B80002AFF10B1113647F100071C2200233046FE
:102B90003946FDF703FB16461F4600210846711A09
:102BA00077EB000002DA1C3647F1000700210846E7
:102BB000711A77EB000000DB05E040F279121EA1EC
:102BC00021A0FDF70FFB1C21711A77F1000000DA3C
:102BD00005E04FF4BD7218A11FA0FDF703FB40F202
:102BE000B371611A75F1000003DA234850F82680AA
:102BF00010E040F2F5710020091BA84103DA1F48DC
:102C000030F9168005E04FF4C0720BA11CA0FDF74F
:102C1000E9FA00BF40F2F570804504DC40F2B37081
:102C2000804500DB05E040F2851203A115A0FDF709
:102C3000D9FA404685E7000054696D6536345C7406
:102C4000696D6536342E6300796561725F637963FF
:102C50006C65203E3D203000796561725F63796369
:102C60006C65203C20534F4C41525F4359434C45C7
:102C70005F4C454E4754480028350008F0340008A2
:102C800030000000736166655F79656172203C3DCC
:102C9000204D41585F534146455F594541522026DA
:102CA0002620736166655F79656172203E3D204D27
:102CB000494E5F534146455F59454152000000006F
:102CC0002DE9FC5F04460D4616461F46301B77EB88
:102CD000050001DA012001E04FF0FF3083464FF09C
:102CE0000008C1464FF416610020091BA84126DAEE
:102CF0004FF41661611A65F100004FF4C8720023A9
:102D0000CDE9001008460199FDF748FA82464FF4D4
:102D1000C8710AFB01F0241A65EBE0754FEAEA710D
:102D2000544A4FF00203AAFB020C01FB02C10AFB4A
:102D30000311024612EB080841EB09092AE04FF49F
:102D4000C861611A75F1000024DA4FF4C861611A94
:102D500065F100004FF4C8720023CDE90010084669
:102D60000199FDF71BFA82464FF4C8710AFB01F086
:102D7000041945EBE0754FEAEA713E4A4FF0020351
:102D8000AAFB020C01FB02C10AFB031210EB0808AC
:102D900042EB09095BE040F26C71711A67F10000C7
:102DA00040F26C73C91840F100004FF4C872002360
:102DB000CDE9001008460199FDF7F0F900214A40DD
:102DC0004B401A432CD040F26C71721A67F100002C
:102DD0000B46D21840F10000CDE900200422002368
:102DE000DDE90001FDF7DAF900214A404B401A43C2
:102DF00018D140F26C71711A67F1000040F26C73E7
:102E0000C91840F1000064220023CDE900100846F3
:102E10000199FDF7C3F900214A404B401A4301D004
:102E2000012000E00020144931F91000C0EB00102F
:102E30008000C0EB0010800000EB4000C00010EBF1
:102E4000080849EBE07916EB0B0647EBEB7784EAD1
:102E5000060085EA070108439DD14FEAEB70A8FB05
:102E60000B1209FB0B2208FB002208461146BDE8A5
:102E7000FC9F0000805960F0EC34000810B5FFF7AB
:102E8000A1FCFEF721F80123044A194641F28830DB
:102E900000F0B8F80249086010BD0000712F00086A
:102EA000B000002010B5044610480078012802D078
:102EB000022817D10FE002200C4908700020FEF70D
:102EC00023F94B210A48006800F00CF90848006813
:102ED00000F0EEF807E0FDF7C5FF0548006800F0D8
:102EE000D1F800E000BF00BF10BD0000640000206A
:102EF000B400002010B504460E48807AC00970B1B5
:102F00004FF480710C48FEF78BFD01230B4A002122
:102F10004FF4FA7000F076F80949086004E04FF4C5
:102F200080710548FEF76EFD0648006800F0AAF8BB
:102F300010BD0000D000002000000B40492F000809
:102F4000AC000020A800002010B504464FF48071AA
:102F50000548FEF757FD0020044948720846807A6C
:102F600020F08000887210BD00000B40D0000020CF
:102F700010B504464FF480710948FEF743FD002068
:102F8000084948720846807A20F080008872084616
:102F9000C07A20F040004030C872FDF757FF10BDE6
:102FA00000000B40D000002010B504460648006821
:102FB000007820F0800080300349096808702046BE
:102FC00000F060F810BD00003C00002010B5044681
:102FD00001230A4A002140F24C4000F013F808494E
:102FE00008604FF08040FDF7D9FC012803D0012193
:102FF0008807FDF7AEFCFDF739FC10BDA92F0008CE
:10300000140000202DE9F04705460E461746984665
:103010004FF0000900242BE0184800EB0410C068B2
:1030200020BB164800EB04104560144800EB041068
:103030004672124800EB0410C760B8F1000F0DD0C3
:103040000F480068804728440C4901EB04110860D0
:1030500001200A4901EB0411087204E0002007492D
:1030600001EB0411087204F1010903E0601C84B251
:103070000C2CD1DB00BF4846BDE8F0876407002078
:10308000A400002050B10022411E054B03EB0111AA
:10309000CA60411E03EB01110A7200207047000054
:1030A000640700200149086070470000A400002068
:1030B00010B504468CB1094800688047611E084A73
:1030C00002EB011149680144601E02EB001001602F
:1030D0000121601E02EB0010017210BDA40000204F
:1030E0006407002020B1421E024B03EB0212516024
:1030F000704700006407002070B5054600242AE0F0
:10310000164800EB0410007A012820D1134800EB88
:1031100004100068A84219D8104800EB0410407A47
:1031200048B10E4800EB0410406828440B4901EBFD
:103130000411086004E00020084901EB0411087242
:10314000064800EB0410C168601C884700E000BF1F
:1031500000BF601C84B20C2CD2DB70BD6407002061
:10316000401058BFC0F14040491058BFC1F1404124
:103170008142EFF3008070474FF47F0C1CEAD012BD
:103180001EBF1CEAD11392EA0C0F93EA0C0F00F059
:10319000858090EA010F48BF42F4807240F4000C31
:1031A00041F400002CF07F4120F07F4000B58142C7
:1031B000A2EB03020FF2081CACEB504EC0F1000072
:1031C0009EF800E04FEA4E0E00FB0EFC38BF4900AF
:1031D0004FEA2C1C02F5FA020CFB0EF34FEACE1E4E
:1031E0004FEA112C4FEAC1210EEB635E42EB224203
:1031F0000EFB0CFC4FEA1C5300FB03114FEA112C91
:103200004FEA01310EFB0CFC4FEADC4C00FB0C11C9
:10321000C14228BF09184CEB03335DF804EB10EBF7
:10322000410143EBC250B2F57C0F38BF704729D53E
:1032300012F0F00F1CBF00F1C04000F000407047DA
:10324000008182838485868788898B8C8D8E8F917F
:103250009293959697999A9C9D9FA0A2A3A5A7A8A3
:10326000AAACAEB0B2B3B5B7B9BCBEC0C2C5C7C9CF
:10327000CCCED1D4D7D9DCDFE2E6E9ECF0F3F7FA33
:10328000FE0000004FEA400C0CF1807CBCF17E4F48
:1032900028BF7047B0F1C04000F0BEB890EA010FFF
:1032A0000CEAD11348BF42F48072624538BF6345CF
:1032B00007D213F47F0F16D080EA010000F000401F
:1032C000704710B500F062F8097EFC3E00F005B8CA
:1032D00080EA010000F00040704780EA010000F041
:1032E000004000F099B812F47F0F04BF0248704705
:1032F00080EA010000F090B80000C07FB0FA80F3CF
:1033000010FA03F2C3F19D030AD0D90501EB122094
:10331000530638BF704700F1010008BF20F00100DC
:103320007047000050EA010C00F113801CF5000FFB
:1033300058BFBCF5000F01D48842704707D710F57D
:10334000000F58BF11F5000F15D48842704789420D
:1033500070471CF5000F04D5BCF5000FF7D581426E
:1033600070474FF0807C1CEB400F38BF1CEB410FC7
:1033700001D28142704710B500F008F8922449004C
:103380004FF000504FF08051FFF7EABE0EF1020EF1
:103390002EF0030E5EF8044B244204D44FEA41029F
:1033A000B2F17F4F11D84FEA4003B3F17F4F0CD8F1
:1033B0000ED14FEAD07CB2F17F4F0CEB4C0C0CF1EC
:1033C000020C08BF4CEBD17C04E04FF0080C01E08C
:1033D0004FEAD17C0CEB4C0324FA03F404F007040D
:1033E000B4F1040C06D20EEB840CBDE810404CF096
:1033F000010C6047DFE80CF0070802024FF00040C4
:10340000A0F5800010BD0846420018BFD2F18072BE
:1034100088BF00F0004010BDFF2141EAD050C00538
:103420007047000000800A401000000000800A4041
:103430000400000000800A400800000000800A40EC
:103440000100000000800A400200000007000000A8
:103450000E00000013000000120000000000000039
:103460008A000000010000001100000000000000C0
:103470000000000000000000340000002D000000EB
:103480000C0000000D0000000B0000000100000017
:10349000050000005A0100000000000000000000CC
:1034A000000000001F1C1F1E1F1E1F1F1E1F1E1FAF
:1034B0001F1D1F1E1F1E1F1F1E1F1E1F00001F007F
:1034C0003B005A0078009700B500D400F3001101CA
:1034D00030014E0100001F003C005B0079009800A5
:1034E000B600D500F400120131014F016D016E01EB
:1034F000E007E107E207E307E407E507E607E70778
:10350000E807E907EA07EB07EC07ED07EE07EF0727
:10351000F007F107F207F307F407F507DA07DB070F
:10352000DC07DD07DE07DF07CC070000CD07000062
:10353000CE070000B3070000B4070000B507000085
:10354000B6070000B7070000B8070000B907000081
:10355000BA070000BB070000BC070000BD07000061
:10356000BE070000BF070000C0070000C107000041
:10357000C2070000C3070000C4070000C507000021
:10358000C6070000C7070000C8070000C907000001
:10359000CA070000CB070000050001020305060072
:1035A00001030405060102030406000102040506E6
:1035B000000203041F1D1F1E1F1E1F1F1E1F1E1F94
:1035C000E035000800000020BC000000FC000008FE
:1035D0009C360008BC000020CC0D0000180100083B
:1035E00000800C404000000000800C408000000083
:1035F00000000000000000000000000000000000CB
:1036000000000000000000000000000000000000BA
:1036100000000000000000000000000000000000AA
:103620000000000000800C404000000000800C40C2
:103630008000000000800C404000000000800C4032
:10364000800000000000000000800C4040000000EE
:1036500000800C408000000000800C404000000012
:1036600000800C408000000000000000000000000E
:103670000000000000800C404000000000800C4072
:1036800080000000000000000000000000000000BA
:0C369000000000000000000000127A00A2
:04000005080000C12E
:00000001FF
